{
  "abi": [
    {
      "inputs": [
        {
          "internalType": "uint256",
          "name": "minimumContri",
          "type": "uint256"
        },
        {
          "internalType": "address",
          "name": "initiator",
          "type": "address"
        }
      ],
      "stateMutability": "nonpayable",
      "type": "constructor"
    },
    {
      "inputs": [
        {
          "internalType": "uint256",
          "name": "requestNumber",
          "type": "uint256"
        }
      ],
      "name": "approveWithrawalRequests",
      "outputs": [],
      "stateMutability": "nonpayable",
      "type": "function"
    },
    {
      "inputs": [],
      "name": "contributeToBusiness",
      "outputs": [],
      "stateMutability": "payable",
      "type": "function"
    },
    {
      "inputs": [
        {
          "internalType": "address",
          "name": "",
          "type": "address"
        }
      ],
      "name": "contributors",
      "outputs": [
        {
          "internalType": "bool",
          "name": "contributed",
          "type": "bool"
        },
        {
          "internalType": "bool",
          "name": "approved",
          "type": "bool"
        }
      ],
      "stateMutability": "view",
      "type": "function"
    },
    {
      "inputs": [],
      "name": "contributorsCount",
      "outputs": [
        {
          "internalType": "uint256",
          "name": "",
          "type": "uint256"
        }
      ],
      "stateMutability": "view",
      "type": "function"
    },
    {
      "inputs": [],
      "name": "entrepreneur",
      "outputs": [
        {
          "internalType": "address",
          "name": "",
          "type": "address"
        }
      ],
      "stateMutability": "view",
      "type": "function"
    },
    {
      "inputs": [],
      "name": "getTotalFund",
      "outputs": [
        {
          "internalType": "uint256",
          "name": "balance",
          "type": "uint256"
        }
      ],
      "stateMutability": "view",
      "type": "function"
    },
    {
      "inputs": [
        {
          "internalType": "string",
          "name": "description",
          "type": "string"
        },
        {
          "internalType": "uint256",
          "name": "amount",
          "type": "uint256"
        },
        {
          "internalType": "address",
          "name": "vendor",
          "type": "address"
        }
      ],
      "name": "initiateRequest",
      "outputs": [],
      "stateMutability": "nonpayable",
      "type": "function"
    },
    {
      "inputs": [],
      "name": "minimumContribution",
      "outputs": [
        {
          "internalType": "uint256",
          "name": "",
          "type": "uint256"
        }
      ],
      "stateMutability": "view",
      "type": "function"
    },
    {
      "inputs": [
        {
          "internalType": "uint256",
          "name": "requestNumber",
          "type": "uint256"
        }
      ],
      "name": "withrawFunds",
      "outputs": [],
      "stateMutability": "nonpayable",
      "type": "function"
    },
    {
      "inputs": [
        {
          "internalType": "uint256",
          "name": "",
          "type": "uint256"
        }
      ],
      "name": "withrawalRequests",
      "outputs": [
        {
          "internalType": "string",
          "name": "requestDescription",
          "type": "string"
        },
        {
          "internalType": "address",
          "name": "recipient",
          "type": "address"
        },
        {
          "internalType": "uint256",
          "name": "amount",
          "type": "uint256"
        },
        {
          "internalType": "uint256",
          "name": "approvalCount",
          "type": "uint256"
        },
        {
          "internalType": "bool",
          "name": "completed",
          "type": "bool"
        }
      ],
      "stateMutability": "view",
      "type": "function"
    }
  ],
  "devdoc": {
    "kind": "dev",
    "methods": {},
    "version": 1
  },
  "evm": {
    "assembly": "    /* \"crowdFund.sol\":496:3019  contract crowdFund {... */\n  mstore(0x40, 0x80)\n    /* \"crowdFund.sol\":853:854  0 */\n  0x00\n    /* \"crowdFund.sol\":826:854  uint withrawRequestCount = 0 */\n  0x01\n  sstore\n    /* \"crowdFund.sol\":1155:1292  constructor (uint minimumContri, address initiator){... */\n  callvalue\n  dup1\n  iszero\n  tag_1\n  jumpi\n  0x00\n  dup1\n  revert\ntag_1:\n  pop\n  mload(0x40)\n  sub(codesize, bytecodeSize)\n  dup1\n  bytecodeSize\n  dup4\n  codecopy\n  dup2\n  dup2\n  add\n  0x40\n  mstore\n  dup2\n  add\n  swap1\n  tag_2\n  swap2\n  swap1\n  tag_3\n  jump\t// in\ntag_2:\n    /* \"crowdFund.sol\":1231:1240  initiator */\n  dup1\n    /* \"crowdFund.sol\":1216:1228  entrepreneur */\n  0x02\n  0x00\n    /* \"crowdFund.sol\":1216:1240  entrepreneur = initiator */\n  0x0100\n  exp\n  dup2\n  sload\n  dup2\n  0xffffffffffffffffffffffffffffffffffffffff\n  mul\n  not\n  and\n  swap1\n  dup4\n  0xffffffffffffffffffffffffffffffffffffffff\n  and\n  mul\n  or\n  swap1\n  sstore\n  pop\n    /* \"crowdFund.sol\":1272:1285  minimumContri */\n  dup2\n    /* \"crowdFund.sol\":1250:1269  minimumContribution */\n  0x04\n    /* \"crowdFund.sol\":1250:1285  minimumContribution = minimumContri */\n  dup2\n  swap1\n  sstore\n  pop\n    /* \"crowdFund.sol\":1155:1292  constructor (uint minimumContri, address initiator){... */\n  pop\n  pop\n    /* \"crowdFund.sol\":496:3019  contract crowdFund {... */\n  jump(tag_6)\n    /* \"#utility.yul\":7:150   */\ntag_8:\n    /* \"#utility.yul\":64:69   */\n  0x00\n    /* \"#utility.yul\":95:101   */\n  dup2\n    /* \"#utility.yul\":89:102   */\n  mload\n    /* \"#utility.yul\":80:102   */\n  swap1\n  pop\n    /* \"#utility.yul\":111:144   */\n  tag_10\n    /* \"#utility.yul\":138:143   */\n  dup2\n    /* \"#utility.yul\":111:144   */\n  tag_11\n  jump\t// in\ntag_10:\n    /* \"#utility.yul\":70:150   */\n  swap3\n  swap2\n  pop\n  pop\n  jump\t// out\n    /* \"#utility.yul\":156:299   */\ntag_12:\n    /* \"#utility.yul\":213:218   */\n  0x00\n    /* \"#utility.yul\":244:250   */\n  dup2\n    /* \"#utility.yul\":238:251   */\n  mload\n    /* \"#utility.yul\":229:251   */\n  swap1\n  pop\n    /* \"#utility.yul\":260:293   */\n  tag_14\n    /* \"#utility.yul\":287:292   */\n  dup2\n    /* \"#utility.yul\":260:293   */\n  tag_15\n  jump\t// in\ntag_14:\n    /* \"#utility.yul\":219:299   */\n  swap3\n  swap2\n  pop\n  pop\n  jump\t// out\n    /* \"#utility.yul\":305:812   */\ntag_3:\n    /* \"#utility.yul\":384:390   */\n  0x00\n    /* \"#utility.yul\":392:398   */\n  dup1\n    /* \"#utility.yul\":441:443   */\n  0x40\n    /* \"#utility.yul\":429:438   */\n  dup4\n    /* \"#utility.yul\":420:427   */\n  dup6\n    /* \"#utility.yul\":416:439   */\n  sub\n    /* \"#utility.yul\":412:444   */\n  slt\n    /* \"#utility.yul\":409:411   */\n  iszero\n  tag_17\n  jumpi\n    /* \"#utility.yul\":447:526   */\n  tag_18\n  tag_19\n  jump\t// in\ntag_18:\n    /* \"#utility.yul\":409:411   */\ntag_17:\n    /* \"#utility.yul\":567:568   */\n  0x00\n    /* \"#utility.yul\":592:656   */\n  tag_20\n    /* \"#utility.yul\":648:655   */\n  dup6\n    /* \"#utility.yul\":639:645   */\n  dup3\n    /* \"#utility.yul\":628:637   */\n  dup7\n    /* \"#utility.yul\":624:646   */\n  add\n    /* \"#utility.yul\":592:656   */\n  tag_12\n  jump\t// in\ntag_20:\n    /* \"#utility.yul\":582:656   */\n  swap3\n  pop\n    /* \"#utility.yul\":538:666   */\n  pop\n    /* \"#utility.yul\":705:707   */\n  0x20\n    /* \"#utility.yul\":731:795   */\n  tag_21\n    /* \"#utility.yul\":787:794   */\n  dup6\n    /* \"#utility.yul\":778:784   */\n  dup3\n    /* \"#utility.yul\":767:776   */\n  dup7\n    /* \"#utility.yul\":763:785   */\n  add\n    /* \"#utility.yul\":731:795   */\n  tag_8\n  jump\t// in\ntag_21:\n    /* \"#utility.yul\":721:795   */\n  swap2\n  pop\n    /* \"#utility.yul\":676:805   */\n  pop\n    /* \"#utility.yul\":399:812   */\n  swap3\n  pop\n  swap3\n  swap1\n  pop\n  jump\t// out\n    /* \"#utility.yul\":899:995   */\ntag_24:\n    /* \"#utility.yul\":936:943   */\n  0x00\n    /* \"#utility.yul\":965:989   */\n  tag_26\n    /* \"#utility.yul\":983:988   */\n  dup3\n    /* \"#utility.yul\":965:989   */\n  tag_27\n  jump\t// in\ntag_26:\n    /* \"#utility.yul\":954:989   */\n  swap1\n  pop\n    /* \"#utility.yul\":944:995   */\n  swap2\n  swap1\n  pop\n  jump\t// out\n    /* \"#utility.yul\":1001:1127   */\ntag_27:\n    /* \"#utility.yul\":1038:1045   */\n  0x00\n    /* \"#utility.yul\":1078:1120   */\n  0xffffffffffffffffffffffffffffffffffffffff\n    /* \"#utility.yul\":1071:1076   */\n  dup3\n    /* \"#utility.yul\":1067:1121   */\n  and\n    /* \"#utility.yul\":1056:1121   */\n  swap1\n  pop\n    /* \"#utility.yul\":1046:1127   */\n  swap2\n  swap1\n  pop\n  jump\t// out\n    /* \"#utility.yul\":1133:1210   */\ntag_29:\n    /* \"#utility.yul\":1170:1177   */\n  0x00\n    /* \"#utility.yul\":1199:1204   */\n  dup2\n    /* \"#utility.yul\":1188:1204   */\n  swap1\n  pop\n    /* \"#utility.yul\":1178:1210   */\n  swap2\n  swap1\n  pop\n  jump\t// out\n    /* \"#utility.yul\":1339:1456   */\ntag_19:\n    /* \"#utility.yul\":1448:1449   */\n  0x00\n    /* \"#utility.yul\":1445:1446   */\n  dup1\n    /* \"#utility.yul\":1438:1450   */\n  revert\n    /* \"#utility.yul\":1462:1584   */\ntag_11:\n    /* \"#utility.yul\":1535:1559   */\n  tag_35\n    /* \"#utility.yul\":1553:1558   */\n  dup2\n    /* \"#utility.yul\":1535:1559   */\n  tag_24\n  jump\t// in\ntag_35:\n    /* \"#utility.yul\":1528:1533   */\n  dup2\n    /* \"#utility.yul\":1525:1560   */\n  eq\n    /* \"#utility.yul\":1515:1517   */\n  tag_36\n  jumpi\n    /* \"#utility.yul\":1574:1575   */\n  0x00\n    /* \"#utility.yul\":1571:1572   */\n  dup1\n    /* \"#utility.yul\":1564:1576   */\n  revert\n    /* \"#utility.yul\":1515:1517   */\ntag_36:\n    /* \"#utility.yul\":1505:1584   */\n  pop\n  jump\t// out\n    /* \"#utility.yul\":1590:1712   */\ntag_15:\n    /* \"#utility.yul\":1663:1687   */\n  tag_38\n    /* \"#utility.yul\":1681:1686   */\n  dup2\n    /* \"#utility.yul\":1663:1687   */\n  tag_29\n  jump\t// in\ntag_38:\n    /* \"#utility.yul\":1656:1661   */\n  dup2\n    /* \"#utility.yul\":1653:1688   */\n  eq\n    /* \"#utility.yul\":1643:1645   */\n  tag_39\n  jumpi\n    /* \"#utility.yul\":1702:1703   */\n  0x00\n    /* \"#utility.yul\":1699:1700   */\n  dup1\n    /* \"#utility.yul\":1692:1704   */\n  revert\n    /* \"#utility.yul\":1643:1645   */\ntag_39:\n    /* \"#utility.yul\":1633:1712   */\n  pop\n  jump\t// out\n    /* \"crowdFund.sol\":496:3019  contract crowdFund {... */\ntag_6:\n  dataSize(sub_0)\n  dup1\n  dataOffset(sub_0)\n  0x00\n  codecopy\n  0x00\n  return\nstop\n\nsub_0: assembly {\n        /* \"crowdFund.sol\":496:3019  contract crowdFund {... */\n      mstore(0x40, 0x80)\n      jumpi(tag_1, lt(calldatasize, 0x04))\n      shr(0xe0, calldataload(0x00))\n      dup1\n      0x5e4989f7\n      gt\n      tag_12\n      jumpi\n      dup1\n      0x5e4989f7\n      eq\n      tag_7\n      jumpi\n      dup1\n      0x7569b3d7\n      eq\n      tag_8\n      jumpi\n      dup1\n      0x937e09b1\n      eq\n      tag_9\n      jumpi\n      dup1\n      0x9fd813e3\n      eq\n      tag_10\n      jumpi\n      dup1\n      0xf6ec847a\n      eq\n      tag_11\n      jumpi\n      jump(tag_1)\n    tag_12:\n      dup1\n      0x788ac0\n      eq\n      tag_2\n      jumpi\n      dup1\n      0x054f381b\n      eq\n      tag_3\n      jumpi\n      dup1\n      0x10dc50d7\n      eq\n      tag_4\n      jumpi\n      dup1\n      0x1f6d4942\n      eq\n      tag_5\n      jumpi\n      dup1\n      0x214288cc\n      eq\n      tag_6\n      jumpi\n    tag_1:\n      0x00\n      dup1\n      revert\n        /* \"crowdFund.sol\":1927:2441  function approveWithrawalRequests(uint requestNumber) public {... */\n    tag_2:\n      callvalue\n      dup1\n      iszero\n      tag_13\n      jumpi\n      0x00\n      dup1\n      revert\n    tag_13:\n      pop\n      tag_14\n      0x04\n      dup1\n      calldatasize\n      sub\n      dup2\n      add\n      swap1\n      tag_15\n      swap2\n      swap1\n      tag_16\n      jump\t// in\n    tag_15:\n      tag_17\n      jump\t// in\n    tag_14:\n      stop\n        /* \"crowdFund.sol\":865:892  address public entrepreneur */\n    tag_3:\n      callvalue\n      dup1\n      iszero\n      tag_18\n      jumpi\n      0x00\n      dup1\n      revert\n    tag_18:\n      pop\n      tag_19\n      tag_20\n      jump\t// in\n    tag_19:\n      mload(0x40)\n      tag_21\n      swap2\n      swap1\n      tag_22\n      jump\t// in\n    tag_21:\n      mload(0x40)\n      dup1\n      swap2\n      sub\n      swap1\n      return\n        /* \"crowdFund.sol\":2451:2791  function withrawFunds(uint requestNumber) public onlyEntrepreneur{... */\n    tag_4:\n      callvalue\n      dup1\n      iszero\n      tag_23\n      jumpi\n      0x00\n      dup1\n      revert\n    tag_23:\n      pop\n      tag_24\n      0x04\n      dup1\n      calldatasize\n      sub\n      dup2\n      add\n      swap1\n      tag_25\n      swap2\n      swap1\n      tag_16\n      jump\t// in\n    tag_25:\n      tag_26\n      jump\t// in\n    tag_24:\n      stop\n        /* \"crowdFund.sol\":1001:1057  mapping(address => contributorInfo)  public contributors */\n    tag_5:\n      callvalue\n      dup1\n      iszero\n      tag_27\n      jumpi\n      0x00\n      dup1\n      revert\n    tag_27:\n      pop\n      tag_28\n      0x04\n      dup1\n      calldatasize\n      sub\n      dup2\n      add\n      swap1\n      tag_29\n      swap2\n      swap1\n      tag_30\n      jump\t// in\n    tag_29:\n      tag_31\n      jump\t// in\n    tag_28:\n      mload(0x40)\n      tag_32\n      swap3\n      swap2\n      swap1\n      tag_33\n      jump\t// in\n    tag_32:\n      mload(0x40)\n      dup1\n      swap2\n      sub\n      swap1\n      return\n        /* \"crowdFund.sol\":762:811  mapping(uint => Request) public withrawalRequests */\n    tag_6:\n      callvalue\n      dup1\n      iszero\n      tag_34\n      jumpi\n      0x00\n      dup1\n      revert\n    tag_34:\n      pop\n      tag_35\n      0x04\n      dup1\n      calldatasize\n      sub\n      dup2\n      add\n      swap1\n      tag_36\n      swap2\n      swap1\n      tag_16\n      jump\t// in\n    tag_36:\n      tag_37\n      jump\t// in\n    tag_35:\n      mload(0x40)\n      tag_38\n      swap6\n      swap5\n      swap4\n      swap3\n      swap2\n      swap1\n      tag_39\n      jump\t// in\n    tag_38:\n      mload(0x40)\n      dup1\n      swap2\n      sub\n      swap1\n      return\n        /* \"crowdFund.sol\":1522:1917  function initiateRequest(string memory description, uint amount, address vendor) public onlyEntrepreneur {... */\n    tag_7:\n      callvalue\n      dup1\n      iszero\n      tag_40\n      jumpi\n      0x00\n      dup1\n      revert\n    tag_40:\n      pop\n      tag_41\n      0x04\n      dup1\n      calldatasize\n      sub\n      dup2\n      add\n      swap1\n      tag_42\n      swap2\n      swap1\n      tag_43\n      jump\t// in\n    tag_42:\n      tag_44\n      jump\t// in\n    tag_41:\n      stop\n        /* \"crowdFund.sol\":1110:1139  uint public contributorsCount */\n    tag_8:\n      callvalue\n      dup1\n      iszero\n      tag_45\n      jumpi\n      0x00\n      dup1\n      revert\n    tag_45:\n      pop\n      tag_46\n      tag_47\n      jump\t// in\n    tag_46:\n      mload(0x40)\n      tag_48\n      swap2\n      swap1\n      tag_49\n      jump\t// in\n    tag_48:\n      mload(0x40)\n      dup1\n      swap2\n      sub\n      swap1\n      return\n        /* \"crowdFund.sol\":1068:1099  uint public minimumContribution */\n    tag_9:\n      callvalue\n      dup1\n      iszero\n      tag_50\n      jumpi\n      0x00\n      dup1\n      revert\n    tag_50:\n      pop\n      tag_51\n      tag_52\n      jump\t// in\n    tag_51:\n      mload(0x40)\n      tag_53\n      swap2\n      swap1\n      tag_49\n      jump\t// in\n    tag_53:\n      mload(0x40)\n      dup1\n      swap2\n      sub\n      swap1\n      return\n        /* \"crowdFund.sol\":2801:2904  function getTotalFund() public view returns (uint balance){... */\n    tag_10:\n      callvalue\n      dup1\n      iszero\n      tag_54\n      jumpi\n      0x00\n      dup1\n      revert\n    tag_54:\n      pop\n      tag_55\n      tag_56\n      jump\t// in\n    tag_55:\n      mload(0x40)\n      tag_57\n      swap2\n      swap1\n      tag_49\n      jump\t// in\n    tag_57:\n      mload(0x40)\n      dup1\n      swap2\n      sub\n      swap1\n      return\n        /* \"crowdFund.sol\":1307:1512  function contributeToBusiness() public payable {... */\n    tag_11:\n      tag_58\n      tag_59\n      jump\t// in\n    tag_58:\n      stop\n        /* \"crowdFund.sol\":1927:2441  function approveWithrawalRequests(uint requestNumber) public {... */\n    tag_17:\n        /* \"crowdFund.sol\":2029:2041  entrepreneur */\n      0x02\n      0x00\n      swap1\n      sload\n      swap1\n      0x0100\n      exp\n      swap1\n      div\n      0xffffffffffffffffffffffffffffffffffffffff\n      and\n        /* \"crowdFund.sol\":2015:2041  msg.sender != entrepreneur */\n      0xffffffffffffffffffffffffffffffffffffffff\n      and\n        /* \"crowdFund.sol\":2015:2025  msg.sender */\n      caller\n        /* \"crowdFund.sol\":2015:2041  msg.sender != entrepreneur */\n      0xffffffffffffffffffffffffffffffffffffffff\n      and\n      eq\n      iszero\n        /* \"crowdFund.sol\":2007:2042  require(msg.sender != entrepreneur) */\n      tag_61\n      jumpi\n      0x00\n      dup1\n      revert\n    tag_61:\n        /* \"crowdFund.sol\":2060:2072  contributors */\n      0x03\n        /* \"crowdFund.sol\":2060:2084  contributors[msg.sender] */\n      0x00\n        /* \"crowdFund.sol\":2073:2083  msg.sender */\n      caller\n        /* \"crowdFund.sol\":2060:2084  contributors[msg.sender] */\n      0xffffffffffffffffffffffffffffffffffffffff\n      and\n      0xffffffffffffffffffffffffffffffffffffffff\n      and\n      dup2\n      mstore\n      0x20\n      add\n      swap1\n      dup2\n      mstore\n      0x20\n      add\n      0x00\n      keccak256\n        /* \"crowdFund.sol\":2060:2096  contributors[msg.sender].contributed */\n      0x00\n      add\n      0x00\n      swap1\n      sload\n      swap1\n      0x0100\n      exp\n      swap1\n      div\n      0xff\n      and\n        /* \"crowdFund.sol\":2052:2097  require(contributors[msg.sender].contributed) */\n      tag_62\n      jumpi\n      0x00\n      dup1\n      revert\n    tag_62:\n        /* \"crowdFund.sol\":2116:2128  contributors */\n      0x03\n        /* \"crowdFund.sol\":2116:2140  contributors[msg.sender] */\n      0x00\n        /* \"crowdFund.sol\":2129:2139  msg.sender */\n      caller\n        /* \"crowdFund.sol\":2116:2140  contributors[msg.sender] */\n      0xffffffffffffffffffffffffffffffffffffffff\n      and\n      0xffffffffffffffffffffffffffffffffffffffff\n      and\n      dup2\n      mstore\n      0x20\n      add\n      swap1\n      dup2\n      mstore\n      0x20\n      add\n      0x00\n      keccak256\n        /* \"crowdFund.sol\":2116:2149  contributors[msg.sender].approved */\n      0x00\n      add\n      0x01\n      swap1\n      sload\n      swap1\n      0x0100\n      exp\n      swap1\n      div\n      0xff\n      and\n        /* \"crowdFund.sol\":2115:2149  !contributors[msg.sender].approved */\n      iszero\n        /* \"crowdFund.sol\":2107:2150  require(!contributors[msg.sender].approved) */\n      tag_63\n      jumpi\n      0x00\n      dup1\n      revert\n    tag_63:\n        /* \"crowdFund.sol\":2169:2186  withrawalRequests */\n      0x00\n        /* \"crowdFund.sol\":2169:2201  withrawalRequests[requestNumber] */\n      dup1\n        /* \"crowdFund.sol\":2187:2200  requestNumber */\n      dup3\n        /* \"crowdFund.sol\":2169:2201  withrawalRequests[requestNumber] */\n      dup2\n      mstore\n      0x20\n      add\n      swap1\n      dup2\n      mstore\n      0x20\n      add\n      0x00\n      keccak256\n        /* \"crowdFund.sol\":2169:2211  withrawalRequests[requestNumber].completed */\n      0x04\n      add\n      0x00\n      swap1\n      sload\n      swap1\n      0x0100\n      exp\n      swap1\n      div\n      0xff\n      and\n        /* \"crowdFund.sol\":2168:2211  !withrawalRequests[requestNumber].completed */\n      iszero\n        /* \"crowdFund.sol\":2160:2212  require(!withrawalRequests[requestNumber].completed) */\n      tag_64\n      jumpi\n      0x00\n      dup1\n      revert\n    tag_64:\n        /* \"crowdFund.sol\":2231:2254  Request storage request */\n      0x00\n        /* \"crowdFund.sol\":2257:2274  withrawalRequests */\n      dup1\n        /* \"crowdFund.sol\":2257:2289  withrawalRequests[requestNumber] */\n      0x00\n        /* \"crowdFund.sol\":2275:2288  requestNumber */\n      dup4\n        /* \"crowdFund.sol\":2257:2289  withrawalRequests[requestNumber] */\n      dup2\n      mstore\n      0x20\n      add\n      swap1\n      dup2\n      mstore\n      0x20\n      add\n      0x00\n      keccak256\n        /* \"crowdFund.sol\":2231:2289  Request storage request = withrawalRequests[requestNumber] */\n      swap1\n      pop\n        /* \"crowdFund.sol\":2338:2342  true */\n      0x01\n        /* \"crowdFund.sol\":2299:2306  request */\n      dup2\n        /* \"crowdFund.sol\":2299:2323  request.requestApprovers */\n      0x05\n      add\n        /* \"crowdFund.sol\":2299:2335  request.requestApprovers[msg.sender] */\n      0x00\n        /* \"crowdFund.sol\":2324:2334  msg.sender */\n      caller\n        /* \"crowdFund.sol\":2299:2335  request.requestApprovers[msg.sender] */\n      0xffffffffffffffffffffffffffffffffffffffff\n      and\n      0xffffffffffffffffffffffffffffffffffffffff\n      and\n      dup2\n      mstore\n      0x20\n      add\n      swap1\n      dup2\n      mstore\n      0x20\n      add\n      0x00\n      keccak256\n      0x00\n        /* \"crowdFund.sol\":2299:2342  request.requestApprovers[msg.sender] = true */\n      0x0100\n      exp\n      dup2\n      sload\n      dup2\n      0xff\n      mul\n      not\n      and\n      swap1\n      dup4\n      iszero\n      iszero\n      mul\n      or\n      swap1\n      sstore\n      pop\n        /* \"crowdFund.sol\":2352:2359  request */\n      dup1\n        /* \"crowdFund.sol\":2352:2373  request.approvalCount */\n      0x03\n      add\n      0x00\n        /* \"crowdFund.sol\":2352:2375  request.approvalCount++ */\n      dup2\n      sload\n      dup1\n      swap3\n      swap2\n      swap1\n      tag_65\n      swap1\n      tag_66\n      jump\t// in\n    tag_65:\n      swap2\n      swap1\n      pop\n      sstore\n      pop\n        /* \"crowdFund.sol\":2421:2425  true */\n      0x01\n        /* \"crowdFund.sol\":2385:2397  contributors */\n      0x03\n        /* \"crowdFund.sol\":2385:2409  contributors[msg.sender] */\n      0x00\n        /* \"crowdFund.sol\":2398:2408  msg.sender */\n      caller\n        /* \"crowdFund.sol\":2385:2409  contributors[msg.sender] */\n      0xffffffffffffffffffffffffffffffffffffffff\n      and\n      0xffffffffffffffffffffffffffffffffffffffff\n      and\n      dup2\n      mstore\n      0x20\n      add\n      swap1\n      dup2\n      mstore\n      0x20\n      add\n      0x00\n      keccak256\n        /* \"crowdFund.sol\":2385:2418  contributors[msg.sender].approved */\n      0x00\n      add\n      0x01\n        /* \"crowdFund.sol\":2385:2425  contributors[msg.sender].approved = true */\n      0x0100\n      exp\n      dup2\n      sload\n      dup2\n      0xff\n      mul\n      not\n      and\n      swap1\n      dup4\n      iszero\n      iszero\n      mul\n      or\n      swap1\n      sstore\n      pop\n        /* \"crowdFund.sol\":1988:2441  {... */\n      pop\n        /* \"crowdFund.sol\":1927:2441  function approveWithrawalRequests(uint requestNumber) public {... */\n      pop\n      jump\t// out\n        /* \"crowdFund.sol\":865:892  address public entrepreneur */\n    tag_20:\n      0x02\n      0x00\n      swap1\n      sload\n      swap1\n      0x0100\n      exp\n      swap1\n      div\n      0xffffffffffffffffffffffffffffffffffffffff\n      and\n      dup2\n      jump\t// out\n        /* \"crowdFund.sol\":2451:2791  function withrawFunds(uint requestNumber) public onlyEntrepreneur{... */\n    tag_26:\n        /* \"crowdFund.sol\":2971:2983  entrepreneur */\n      0x02\n      0x00\n      swap1\n      sload\n      swap1\n      0x0100\n      exp\n      swap1\n      div\n      0xffffffffffffffffffffffffffffffffffffffff\n      and\n        /* \"crowdFund.sol\":2957:2983  msg.sender == entrepreneur */\n      0xffffffffffffffffffffffffffffffffffffffff\n      and\n        /* \"crowdFund.sol\":2957:2967  msg.sender */\n      caller\n        /* \"crowdFund.sol\":2957:2983  msg.sender == entrepreneur */\n      0xffffffffffffffffffffffffffffffffffffffff\n      and\n      eq\n        /* \"crowdFund.sol\":2949:2984  require(msg.sender == entrepreneur) */\n      tag_68\n      jumpi\n      0x00\n      dup1\n      revert\n    tag_68:\n        /* \"crowdFund.sol\":2610:2611  2 */\n      0x02\n        /* \"crowdFund.sol\":2592:2609  contributorsCount */\n      sload(0x05)\n        /* \"crowdFund.sol\":2592:2611  contributorsCount/2 */\n      tag_70\n      swap2\n      swap1\n      tag_71\n      jump\t// in\n    tag_70:\n        /* \"crowdFund.sol\":2543:2560  withrawalRequests */\n      0x00\n        /* \"crowdFund.sol\":2543:2575  withrawalRequests[requestNumber] */\n      dup1\n        /* \"crowdFund.sol\":2561:2574  requestNumber */\n      dup4\n        /* \"crowdFund.sol\":2543:2575  withrawalRequests[requestNumber] */\n      dup2\n      mstore\n      0x20\n      add\n      swap1\n      dup2\n      mstore\n      0x20\n      add\n      0x00\n      keccak256\n        /* \"crowdFund.sol\":2543:2589  withrawalRequests[requestNumber].approvalCount */\n      0x03\n      add\n      sload\n        /* \"crowdFund.sol\":2543:2611  withrawalRequests[requestNumber].approvalCount > contributorsCount/2 */\n      gt\n        /* \"crowdFund.sol\":2535:2612  require(withrawalRequests[requestNumber].approvalCount > contributorsCount/2) */\n      tag_72\n      jumpi\n      0x00\n      dup1\n      revert\n    tag_72:\n        /* \"crowdFund.sol\":2622:2645  Request storage request */\n      0x00\n        /* \"crowdFund.sol\":2648:2665  withrawalRequests */\n      dup1\n        /* \"crowdFund.sol\":2648:2680  withrawalRequests[requestNumber] */\n      0x00\n        /* \"crowdFund.sol\":2666:2679  requestNumber */\n      dup4\n        /* \"crowdFund.sol\":2648:2680  withrawalRequests[requestNumber] */\n      dup2\n      mstore\n      0x20\n      add\n      swap1\n      dup2\n      mstore\n      0x20\n      add\n      0x00\n      keccak256\n        /* \"crowdFund.sol\":2622:2680  Request storage request = withrawalRequests[requestNumber] */\n      swap1\n      pop\n        /* \"crowdFund.sol\":2698:2705  request */\n      dup1\n        /* \"crowdFund.sol\":2698:2715  request.recipient */\n      0x01\n      add\n      0x00\n      swap1\n      sload\n      swap1\n      0x0100\n      exp\n      swap1\n      div\n      0xffffffffffffffffffffffffffffffffffffffff\n      and\n        /* \"crowdFund.sol\":2690:2725  payable(request.recipient).transfer */\n      0xffffffffffffffffffffffffffffffffffffffff\n      and\n        /* \"crowdFund.sol\":2690:2741  payable(request.recipient).transfer(request.amount) */\n      0x08fc\n        /* \"crowdFund.sol\":2726:2733  request */\n      dup3\n        /* \"crowdFund.sol\":2726:2740  request.amount */\n      0x02\n      add\n      sload\n        /* \"crowdFund.sol\":2690:2741  payable(request.recipient).transfer(request.amount) */\n      swap1\n      dup2\n      iszero\n      mul\n      swap1\n      mload(0x40)\n      0x00\n      mload(0x40)\n      dup1\n      dup4\n      sub\n      dup2\n      dup6\n      dup9\n      dup9\n      call\n      swap4\n      pop\n      pop\n      pop\n      pop\n      iszero\n      dup1\n      iszero\n      tag_74\n      jumpi\n      returndatasize\n      0x00\n      dup1\n      returndatacopy\n      revert(0x00, returndatasize)\n    tag_74:\n      pop\n        /* \"crowdFund.sol\":2771:2775  true */\n      0x01\n        /* \"crowdFund.sol\":2751:2758  request */\n      dup2\n        /* \"crowdFund.sol\":2751:2768  request.completed */\n      0x04\n      add\n      0x00\n        /* \"crowdFund.sol\":2751:2775  request.completed = true */\n      0x0100\n      exp\n      dup2\n      sload\n      dup2\n      0xff\n      mul\n      not\n      and\n      swap1\n      dup4\n      iszero\n      iszero\n      mul\n      or\n      swap1\n      sstore\n      pop\n        /* \"crowdFund.sol\":2516:2791  {... */\n      pop\n        /* \"crowdFund.sol\":2451:2791  function withrawFunds(uint requestNumber) public onlyEntrepreneur{... */\n      pop\n      jump\t// out\n        /* \"crowdFund.sol\":1001:1057  mapping(address => contributorInfo)  public contributors */\n    tag_31:\n      mstore(0x20, 0x03)\n      dup1\n      0x00\n      mstore\n      keccak256(0x00, 0x40)\n      0x00\n      swap2\n      pop\n      swap1\n      pop\n      dup1\n      0x00\n      add\n      0x00\n      swap1\n      sload\n      swap1\n      0x0100\n      exp\n      swap1\n      div\n      0xff\n      and\n      swap1\n      dup1\n      0x00\n      add\n      0x01\n      swap1\n      sload\n      swap1\n      0x0100\n      exp\n      swap1\n      div\n      0xff\n      and\n      swap1\n      pop\n      dup3\n      jump\t// out\n        /* \"crowdFund.sol\":762:811  mapping(uint => Request) public withrawalRequests */\n    tag_37:\n      mstore(0x20, 0x00)\n      dup1\n      0x00\n      mstore\n      keccak256(0x00, 0x40)\n      0x00\n      swap2\n      pop\n      swap1\n      pop\n      dup1\n      0x00\n      add\n      dup1\n      sload\n      tag_75\n      swap1\n      tag_76\n      jump\t// in\n    tag_75:\n      dup1\n      0x1f\n      add\n      0x20\n      dup1\n      swap2\n      div\n      mul\n      0x20\n      add\n      mload(0x40)\n      swap1\n      dup2\n      add\n      0x40\n      mstore\n      dup1\n      swap3\n      swap2\n      swap1\n      dup2\n      dup2\n      mstore\n      0x20\n      add\n      dup3\n      dup1\n      sload\n      tag_77\n      swap1\n      tag_76\n      jump\t// in\n    tag_77:\n      dup1\n      iszero\n      tag_78\n      jumpi\n      dup1\n      0x1f\n      lt\n      tag_79\n      jumpi\n      0x0100\n      dup1\n      dup4\n      sload\n      div\n      mul\n      dup4\n      mstore\n      swap2\n      0x20\n      add\n      swap2\n      jump(tag_78)\n    tag_79:\n      dup3\n      add\n      swap2\n      swap1\n      0x00\n      mstore\n      keccak256(0x00, 0x20)\n      swap1\n    tag_80:\n      dup2\n      sload\n      dup2\n      mstore\n      swap1\n      0x01\n      add\n      swap1\n      0x20\n      add\n      dup1\n      dup4\n      gt\n      tag_80\n      jumpi\n      dup3\n      swap1\n      sub\n      0x1f\n      and\n      dup3\n      add\n      swap2\n    tag_78:\n      pop\n      pop\n      pop\n      pop\n      pop\n      swap1\n      dup1\n      0x01\n      add\n      0x00\n      swap1\n      sload\n      swap1\n      0x0100\n      exp\n      swap1\n      div\n      0xffffffffffffffffffffffffffffffffffffffff\n      and\n      swap1\n      dup1\n      0x02\n      add\n      sload\n      swap1\n      dup1\n      0x03\n      add\n      sload\n      swap1\n      dup1\n      0x04\n      add\n      0x00\n      swap1\n      sload\n      swap1\n      0x0100\n      exp\n      swap1\n      div\n      0xff\n      and\n      swap1\n      pop\n      dup6\n      jump\t// out\n        /* \"crowdFund.sol\":1522:1917  function initiateRequest(string memory description, uint amount, address vendor) public onlyEntrepreneur {... */\n    tag_44:\n        /* \"crowdFund.sol\":2971:2983  entrepreneur */\n      0x02\n      0x00\n      swap1\n      sload\n      swap1\n      0x0100\n      exp\n      swap1\n      div\n      0xffffffffffffffffffffffffffffffffffffffff\n      and\n        /* \"crowdFund.sol\":2957:2983  msg.sender == entrepreneur */\n      0xffffffffffffffffffffffffffffffffffffffff\n      and\n        /* \"crowdFund.sol\":2957:2967  msg.sender */\n      caller\n        /* \"crowdFund.sol\":2957:2983  msg.sender == entrepreneur */\n      0xffffffffffffffffffffffffffffffffffffffff\n      and\n      eq\n        /* \"crowdFund.sol\":2949:2984  require(msg.sender == entrepreneur) */\n      tag_82\n      jumpi\n      0x00\n      dup1\n      revert\n    tag_82:\n        /* \"crowdFund.sol\":1646:1669  Request storage request */\n      0x00\n        /* \"crowdFund.sol\":1673:1690  withrawalRequests */\n      dup1\n        /* \"crowdFund.sol\":1673:1713  withrawalRequests[withrawRequestCount++] */\n      0x00\n        /* \"crowdFund.sol\":1691:1710  withrawRequestCount */\n      0x01\n      0x00\n        /* \"crowdFund.sol\":1691:1712  withrawRequestCount++ */\n      dup2\n      sload\n      dup1\n      swap3\n      swap2\n      swap1\n      tag_84\n      swap1\n      tag_66\n      jump\t// in\n    tag_84:\n      swap2\n      swap1\n      pop\n      sstore\n        /* \"crowdFund.sol\":1673:1713  withrawalRequests[withrawRequestCount++] */\n      dup2\n      mstore\n      0x20\n      add\n      swap1\n      dup2\n      mstore\n      0x20\n      add\n      0x00\n      keccak256\n        /* \"crowdFund.sol\":1646:1713  Request storage request =  withrawalRequests[withrawRequestCount++] */\n      swap1\n      pop\n        /* \"crowdFund.sol\":1750:1761  description */\n      dup4\n        /* \"crowdFund.sol\":1723:1730  request */\n      dup2\n        /* \"crowdFund.sol\":1723:1749  request.requestDescription */\n      0x00\n      add\n        /* \"crowdFund.sol\":1723:1761  request.requestDescription=description */\n      swap1\n      dup1\n      mload\n      swap1\n      0x20\n      add\n      swap1\n      tag_85\n      swap3\n      swap2\n      swap1\n      tag_86\n      jump\t// in\n    tag_85:\n      pop\n        /* \"crowdFund.sol\":1789:1795  vendor */\n      dup2\n        /* \"crowdFund.sol\":1771:1778  request */\n      dup2\n        /* \"crowdFund.sol\":1771:1788  request.recipient */\n      0x01\n      add\n      0x00\n        /* \"crowdFund.sol\":1771:1795  request.recipient=vendor */\n      0x0100\n      exp\n      dup2\n      sload\n      dup2\n      0xffffffffffffffffffffffffffffffffffffffff\n      mul\n      not\n      and\n      swap1\n      dup4\n      0xffffffffffffffffffffffffffffffffffffffff\n      and\n      mul\n      or\n      swap1\n      sstore\n      pop\n        /* \"crowdFund.sol\":1820:1826  amount */\n      dup3\n        /* \"crowdFund.sol\":1805:1812  request */\n      dup2\n        /* \"crowdFund.sol\":1805:1819  request.amount */\n      0x02\n      add\n        /* \"crowdFund.sol\":1805:1826  request.amount=amount */\n      dup2\n      swap1\n      sstore\n      pop\n        /* \"crowdFund.sol\":1854:1859  false */\n      0x00\n        /* \"crowdFund.sol\":1836:1843  request */\n      dup2\n        /* \"crowdFund.sol\":1836:1853  request.completed */\n      0x04\n      add\n      0x00\n        /* \"crowdFund.sol\":1836:1859  request.completed=false */\n      0x0100\n      exp\n      dup2\n      sload\n      dup2\n      0xff\n      mul\n      not\n      and\n      swap1\n      dup4\n      iszero\n      iszero\n      mul\n      or\n      swap1\n      sstore\n      pop\n        /* \"crowdFund.sol\":1891:1892  0 */\n      0x00\n        /* \"crowdFund.sol\":1869:1876  request */\n      dup2\n        /* \"crowdFund.sol\":1869:1890  request.approvalCount */\n      0x03\n      add\n        /* \"crowdFund.sol\":1869:1892  request.approvalCount=0 */\n      dup2\n      swap1\n      sstore\n      pop\n        /* \"crowdFund.sol\":1627:1917  {... */\n      pop\n        /* \"crowdFund.sol\":1522:1917  function initiateRequest(string memory description, uint amount, address vendor) public onlyEntrepreneur {... */\n      pop\n      pop\n      pop\n      jump\t// out\n        /* \"crowdFund.sol\":1110:1139  uint public contributorsCount */\n    tag_47:\n      sload(0x05)\n      dup2\n      jump\t// out\n        /* \"crowdFund.sol\":1068:1099  uint public minimumContribution */\n    tag_52:\n      sload(0x04)\n      dup2\n      jump\t// out\n        /* \"crowdFund.sol\":2801:2904  function getTotalFund() public view returns (uint balance){... */\n    tag_56:\n        /* \"crowdFund.sol\":2846:2858  uint balance */\n      0x00\n        /* \"crowdFund.sol\":2876:2897  address(this).balance */\n      selfbalance\n        /* \"crowdFund.sol\":2869:2897  return address(this).balance */\n      swap1\n      pop\n        /* \"crowdFund.sol\":2801:2904  function getTotalFund() public view returns (uint balance){... */\n      swap1\n      jump\t// out\n        /* \"crowdFund.sol\":1307:1512  function contributeToBusiness() public payable {... */\n    tag_59:\n        /* \"crowdFund.sol\":1394:1413  minimumContribution */\n      sload(0x04)\n        /* \"crowdFund.sol\":1381:1390  msg.value */\n      callvalue\n        /* \"crowdFund.sol\":1381:1413  msg.value >= minimumContribution */\n      lt\n      iszero\n        /* \"crowdFund.sol\":1373:1414  require(msg.value >= minimumContribution) */\n      tag_89\n      jumpi\n      0x00\n      dup1\n      revert\n    tag_89:\n        /* \"crowdFund.sol\":1463:1467  true */\n      0x01\n        /* \"crowdFund.sol\":1424:1436  contributors */\n      0x03\n        /* \"crowdFund.sol\":1424:1448  contributors[msg.sender] */\n      0x00\n        /* \"crowdFund.sol\":1437:1447  msg.sender */\n      caller\n        /* \"crowdFund.sol\":1424:1448  contributors[msg.sender] */\n      0xffffffffffffffffffffffffffffffffffffffff\n      and\n      0xffffffffffffffffffffffffffffffffffffffff\n      and\n      dup2\n      mstore\n      0x20\n      add\n      swap1\n      dup2\n      mstore\n      0x20\n      add\n      0x00\n      keccak256\n        /* \"crowdFund.sol\":1424:1460  contributors[msg.sender].contributed */\n      0x00\n      add\n      0x00\n        /* \"crowdFund.sol\":1424:1467  contributors[msg.sender].contributed = true */\n      0x0100\n      exp\n      dup2\n      sload\n      dup2\n      0xff\n      mul\n      not\n      and\n      swap1\n      dup4\n      iszero\n      iszero\n      mul\n      or\n      swap1\n      sstore\n      pop\n        /* \"crowdFund.sol\":1477:1494  contributorsCount */\n      0x05\n      0x00\n        /* \"crowdFund.sol\":1477:1496  contributorsCount++ */\n      dup2\n      sload\n      dup1\n      swap3\n      swap2\n      swap1\n      tag_90\n      swap1\n      tag_66\n      jump\t// in\n    tag_90:\n      swap2\n      swap1\n      pop\n      sstore\n      pop\n        /* \"crowdFund.sol\":1307:1512  function contributeToBusiness() public payable {... */\n      jump\t// out\n    tag_86:\n      dup3\n      dup1\n      sload\n      tag_91\n      swap1\n      tag_76\n      jump\t// in\n    tag_91:\n      swap1\n      0x00\n      mstore\n      keccak256(0x00, 0x20)\n      swap1\n      0x1f\n      add\n      0x20\n      swap1\n      div\n      dup2\n      add\n      swap3\n      dup3\n      tag_93\n      jumpi\n      0x00\n      dup6\n      sstore\n      jump(tag_92)\n    tag_93:\n      dup3\n      0x1f\n      lt\n      tag_94\n      jumpi\n      dup1\n      mload\n      not(0xff)\n      and\n      dup4\n      dup1\n      add\n      or\n      dup6\n      sstore\n      jump(tag_92)\n    tag_94:\n      dup3\n      dup1\n      add\n      0x01\n      add\n      dup6\n      sstore\n      dup3\n      iszero\n      tag_92\n      jumpi\n      swap2\n      dup3\n      add\n    tag_95:\n      dup3\n      dup2\n      gt\n      iszero\n      tag_96\n      jumpi\n      dup3\n      mload\n      dup3\n      sstore\n      swap2\n      0x20\n      add\n      swap2\n      swap1\n      0x01\n      add\n      swap1\n      jump(tag_95)\n    tag_96:\n    tag_92:\n      pop\n      swap1\n      pop\n      tag_97\n      swap2\n      swap1\n      tag_98\n      jump\t// in\n    tag_97:\n      pop\n      swap1\n      jump\t// out\n    tag_98:\n    tag_99:\n      dup1\n      dup3\n      gt\n      iszero\n      tag_100\n      jumpi\n      0x00\n      dup2\n      0x00\n      swap1\n      sstore\n      pop\n      0x01\n      add\n      jump(tag_99)\n    tag_100:\n      pop\n      swap1\n      jump\t// out\n        /* \"#utility.yul\":7:419   */\n    tag_102:\n        /* \"#utility.yul\":85:90   */\n      0x00\n        /* \"#utility.yul\":110:176   */\n      tag_104\n        /* \"#utility.yul\":126:175   */\n      tag_105\n        /* \"#utility.yul\":168:174   */\n      dup5\n        /* \"#utility.yul\":126:175   */\n      tag_106\n      jump\t// in\n    tag_105:\n        /* \"#utility.yul\":110:176   */\n      tag_107\n      jump\t// in\n    tag_104:\n        /* \"#utility.yul\":101:176   */\n      swap1\n      pop\n        /* \"#utility.yul\":199:205   */\n      dup3\n        /* \"#utility.yul\":192:197   */\n      dup2\n        /* \"#utility.yul\":185:206   */\n      mstore\n        /* \"#utility.yul\":237:241   */\n      0x20\n        /* \"#utility.yul\":230:235   */\n      dup2\n        /* \"#utility.yul\":226:242   */\n      add\n        /* \"#utility.yul\":275:278   */\n      dup5\n        /* \"#utility.yul\":266:272   */\n      dup5\n        /* \"#utility.yul\":261:264   */\n      dup5\n        /* \"#utility.yul\":257:273   */\n      add\n        /* \"#utility.yul\":254:279   */\n      gt\n        /* \"#utility.yul\":251:253   */\n      iszero\n      tag_108\n      jumpi\n        /* \"#utility.yul\":282:361   */\n      tag_109\n      tag_110\n      jump\t// in\n    tag_109:\n        /* \"#utility.yul\":251:253   */\n    tag_108:\n        /* \"#utility.yul\":372:413   */\n      tag_111\n        /* \"#utility.yul\":406:412   */\n      dup5\n        /* \"#utility.yul\":401:404   */\n      dup3\n        /* \"#utility.yul\":396:399   */\n      dup6\n        /* \"#utility.yul\":372:413   */\n      tag_112\n      jump\t// in\n    tag_111:\n        /* \"#utility.yul\":91:419   */\n      pop\n      swap4\n      swap3\n      pop\n      pop\n      pop\n      jump\t// out\n        /* \"#utility.yul\":425:564   */\n    tag_113:\n        /* \"#utility.yul\":471:476   */\n      0x00\n        /* \"#utility.yul\":509:515   */\n      dup2\n        /* \"#utility.yul\":496:516   */\n      calldataload\n        /* \"#utility.yul\":487:516   */\n      swap1\n      pop\n        /* \"#utility.yul\":525:558   */\n      tag_115\n        /* \"#utility.yul\":552:557   */\n      dup2\n        /* \"#utility.yul\":525:558   */\n      tag_116\n      jump\t// in\n    tag_115:\n        /* \"#utility.yul\":477:564   */\n      swap3\n      swap2\n      pop\n      pop\n      jump\t// out\n        /* \"#utility.yul\":584:924   */\n    tag_117:\n        /* \"#utility.yul\":640:645   */\n      0x00\n        /* \"#utility.yul\":689:692   */\n      dup3\n        /* \"#utility.yul\":682:686   */\n      0x1f\n        /* \"#utility.yul\":674:680   */\n      dup4\n        /* \"#utility.yul\":670:687   */\n      add\n        /* \"#utility.yul\":666:693   */\n      slt\n        /* \"#utility.yul\":656:658   */\n      tag_119\n      jumpi\n        /* \"#utility.yul\":697:776   */\n      tag_120\n      tag_121\n      jump\t// in\n    tag_120:\n        /* \"#utility.yul\":656:658   */\n    tag_119:\n        /* \"#utility.yul\":814:820   */\n      dup2\n        /* \"#utility.yul\":801:821   */\n      calldataload\n        /* \"#utility.yul\":839:918   */\n      tag_122\n        /* \"#utility.yul\":914:917   */\n      dup5\n        /* \"#utility.yul\":906:912   */\n      dup3\n        /* \"#utility.yul\":899:903   */\n      0x20\n        /* \"#utility.yul\":891:897   */\n      dup7\n        /* \"#utility.yul\":887:904   */\n      add\n        /* \"#utility.yul\":839:918   */\n      tag_102\n      jump\t// in\n    tag_122:\n        /* \"#utility.yul\":830:918   */\n      swap2\n      pop\n        /* \"#utility.yul\":646:924   */\n      pop\n      swap3\n      swap2\n      pop\n      pop\n      jump\t// out\n        /* \"#utility.yul\":930:1069   */\n    tag_123:\n        /* \"#utility.yul\":976:981   */\n      0x00\n        /* \"#utility.yul\":1014:1020   */\n      dup2\n        /* \"#utility.yul\":1001:1021   */\n      calldataload\n        /* \"#utility.yul\":992:1021   */\n      swap1\n      pop\n        /* \"#utility.yul\":1030:1063   */\n      tag_125\n        /* \"#utility.yul\":1057:1062   */\n      dup2\n        /* \"#utility.yul\":1030:1063   */\n      tag_126\n      jump\t// in\n    tag_125:\n        /* \"#utility.yul\":982:1069   */\n      swap3\n      swap2\n      pop\n      pop\n      jump\t// out\n        /* \"#utility.yul\":1075:1404   */\n    tag_30:\n        /* \"#utility.yul\":1134:1140   */\n      0x00\n        /* \"#utility.yul\":1183:1185   */\n      0x20\n        /* \"#utility.yul\":1171:1180   */\n      dup3\n        /* \"#utility.yul\":1162:1169   */\n      dup5\n        /* \"#utility.yul\":1158:1181   */\n      sub\n        /* \"#utility.yul\":1154:1186   */\n      slt\n        /* \"#utility.yul\":1151:1153   */\n      iszero\n      tag_128\n      jumpi\n        /* \"#utility.yul\":1189:1268   */\n      tag_129\n      tag_130\n      jump\t// in\n    tag_129:\n        /* \"#utility.yul\":1151:1153   */\n    tag_128:\n        /* \"#utility.yul\":1309:1310   */\n      0x00\n        /* \"#utility.yul\":1334:1387   */\n      tag_131\n        /* \"#utility.yul\":1379:1386   */\n      dup5\n        /* \"#utility.yul\":1370:1376   */\n      dup3\n        /* \"#utility.yul\":1359:1368   */\n      dup6\n        /* \"#utility.yul\":1355:1377   */\n      add\n        /* \"#utility.yul\":1334:1387   */\n      tag_113\n      jump\t// in\n    tag_131:\n        /* \"#utility.yul\":1324:1387   */\n      swap2\n      pop\n        /* \"#utility.yul\":1280:1397   */\n      pop\n        /* \"#utility.yul\":1141:1404   */\n      swap3\n      swap2\n      pop\n      pop\n      jump\t// out\n        /* \"#utility.yul\":1410:2209   */\n    tag_43:\n        /* \"#utility.yul\":1497:1503   */\n      0x00\n        /* \"#utility.yul\":1505:1511   */\n      dup1\n        /* \"#utility.yul\":1513:1519   */\n      0x00\n        /* \"#utility.yul\":1562:1564   */\n      0x60\n        /* \"#utility.yul\":1550:1559   */\n      dup5\n        /* \"#utility.yul\":1541:1548   */\n      dup7\n        /* \"#utility.yul\":1537:1560   */\n      sub\n        /* \"#utility.yul\":1533:1565   */\n      slt\n        /* \"#utility.yul\":1530:1532   */\n      iszero\n      tag_133\n      jumpi\n        /* \"#utility.yul\":1568:1647   */\n      tag_134\n      tag_130\n      jump\t// in\n    tag_134:\n        /* \"#utility.yul\":1530:1532   */\n    tag_133:\n        /* \"#utility.yul\":1716:1717   */\n      0x00\n        /* \"#utility.yul\":1705:1714   */\n      dup5\n        /* \"#utility.yul\":1701:1718   */\n      add\n        /* \"#utility.yul\":1688:1719   */\n      calldataload\n        /* \"#utility.yul\":1746:1764   */\n      0xffffffffffffffff\n        /* \"#utility.yul\":1738:1744   */\n      dup2\n        /* \"#utility.yul\":1735:1765   */\n      gt\n        /* \"#utility.yul\":1732:1734   */\n      iszero\n      tag_135\n      jumpi\n        /* \"#utility.yul\":1768:1847   */\n      tag_136\n      tag_137\n      jump\t// in\n    tag_136:\n        /* \"#utility.yul\":1732:1734   */\n    tag_135:\n        /* \"#utility.yul\":1873:1936   */\n      tag_138\n        /* \"#utility.yul\":1928:1935   */\n      dup7\n        /* \"#utility.yul\":1919:1925   */\n      dup3\n        /* \"#utility.yul\":1908:1917   */\n      dup8\n        /* \"#utility.yul\":1904:1926   */\n      add\n        /* \"#utility.yul\":1873:1936   */\n      tag_117\n      jump\t// in\n    tag_138:\n        /* \"#utility.yul\":1863:1936   */\n      swap4\n      pop\n        /* \"#utility.yul\":1659:1946   */\n      pop\n        /* \"#utility.yul\":1985:1987   */\n      0x20\n        /* \"#utility.yul\":2011:2064   */\n      tag_139\n        /* \"#utility.yul\":2056:2063   */\n      dup7\n        /* \"#utility.yul\":2047:2053   */\n      dup3\n        /* \"#utility.yul\":2036:2045   */\n      dup8\n        /* \"#utility.yul\":2032:2054   */\n      add\n        /* \"#utility.yul\":2011:2064   */\n      tag_123\n      jump\t// in\n    tag_139:\n        /* \"#utility.yul\":2001:2064   */\n      swap3\n      pop\n        /* \"#utility.yul\":1956:2074   */\n      pop\n        /* \"#utility.yul\":2113:2115   */\n      0x40\n        /* \"#utility.yul\":2139:2192   */\n      tag_140\n        /* \"#utility.yul\":2184:2191   */\n      dup7\n        /* \"#utility.yul\":2175:2181   */\n      dup3\n        /* \"#utility.yul\":2164:2173   */\n      dup8\n        /* \"#utility.yul\":2160:2182   */\n      add\n        /* \"#utility.yul\":2139:2192   */\n      tag_113\n      jump\t// in\n    tag_140:\n        /* \"#utility.yul\":2129:2192   */\n      swap2\n      pop\n        /* \"#utility.yul\":2084:2202   */\n      pop\n        /* \"#utility.yul\":1520:2209   */\n      swap3\n      pop\n      swap3\n      pop\n      swap3\n      jump\t// out\n        /* \"#utility.yul\":2215:2544   */\n    tag_16:\n        /* \"#utility.yul\":2274:2280   */\n      0x00\n        /* \"#utility.yul\":2323:2325   */\n      0x20\n        /* \"#utility.yul\":2311:2320   */\n      dup3\n        /* \"#utility.yul\":2302:2309   */\n      dup5\n        /* \"#utility.yul\":2298:2321   */\n      sub\n        /* \"#utility.yul\":2294:2326   */\n      slt\n        /* \"#utility.yul\":2291:2293   */\n      iszero\n      tag_142\n      jumpi\n        /* \"#utility.yul\":2329:2408   */\n      tag_143\n      tag_130\n      jump\t// in\n    tag_143:\n        /* \"#utility.yul\":2291:2293   */\n    tag_142:\n        /* \"#utility.yul\":2449:2450   */\n      0x00\n        /* \"#utility.yul\":2474:2527   */\n      tag_144\n        /* \"#utility.yul\":2519:2526   */\n      dup5\n        /* \"#utility.yul\":2510:2516   */\n      dup3\n        /* \"#utility.yul\":2499:2508   */\n      dup6\n        /* \"#utility.yul\":2495:2517   */\n      add\n        /* \"#utility.yul\":2474:2527   */\n      tag_123\n      jump\t// in\n    tag_144:\n        /* \"#utility.yul\":2464:2527   */\n      swap2\n      pop\n        /* \"#utility.yul\":2420:2537   */\n      pop\n        /* \"#utility.yul\":2281:2544   */\n      swap3\n      swap2\n      pop\n      pop\n      jump\t// out\n        /* \"#utility.yul\":2550:2668   */\n    tag_145:\n        /* \"#utility.yul\":2637:2661   */\n      tag_147\n        /* \"#utility.yul\":2655:2660   */\n      dup2\n        /* \"#utility.yul\":2637:2661   */\n      tag_148\n      jump\t// in\n    tag_147:\n        /* \"#utility.yul\":2632:2635   */\n      dup3\n        /* \"#utility.yul\":2625:2662   */\n      mstore\n        /* \"#utility.yul\":2615:2668   */\n      pop\n      pop\n      jump\t// out\n        /* \"#utility.yul\":2674:2783   */\n    tag_149:\n        /* \"#utility.yul\":2755:2776   */\n      tag_151\n        /* \"#utility.yul\":2770:2775   */\n      dup2\n        /* \"#utility.yul\":2755:2776   */\n      tag_152\n      jump\t// in\n    tag_151:\n        /* \"#utility.yul\":2750:2753   */\n      dup3\n        /* \"#utility.yul\":2743:2777   */\n      mstore\n        /* \"#utility.yul\":2733:2783   */\n      pop\n      pop\n      jump\t// out\n        /* \"#utility.yul\":2789:3153   */\n    tag_153:\n        /* \"#utility.yul\":2877:2880   */\n      0x00\n        /* \"#utility.yul\":2905:2944   */\n      tag_155\n        /* \"#utility.yul\":2938:2943   */\n      dup3\n        /* \"#utility.yul\":2905:2944   */\n      tag_156\n      jump\t// in\n    tag_155:\n        /* \"#utility.yul\":2960:3031   */\n      tag_157\n        /* \"#utility.yul\":3024:3030   */\n      dup2\n        /* \"#utility.yul\":3019:3022   */\n      dup6\n        /* \"#utility.yul\":2960:3031   */\n      tag_158\n      jump\t// in\n    tag_157:\n        /* \"#utility.yul\":2953:3031   */\n      swap4\n      pop\n        /* \"#utility.yul\":3040:3092   */\n      tag_159\n        /* \"#utility.yul\":3085:3091   */\n      dup2\n        /* \"#utility.yul\":3080:3083   */\n      dup6\n        /* \"#utility.yul\":3073:3077   */\n      0x20\n        /* \"#utility.yul\":3066:3071   */\n      dup7\n        /* \"#utility.yul\":3062:3078   */\n      add\n        /* \"#utility.yul\":3040:3092   */\n      tag_160\n      jump\t// in\n    tag_159:\n        /* \"#utility.yul\":3117:3146   */\n      tag_161\n        /* \"#utility.yul\":3139:3145   */\n      dup2\n        /* \"#utility.yul\":3117:3146   */\n      tag_162\n      jump\t// in\n    tag_161:\n        /* \"#utility.yul\":3112:3115   */\n      dup5\n        /* \"#utility.yul\":3108:3147   */\n      add\n        /* \"#utility.yul\":3101:3147   */\n      swap2\n      pop\n        /* \"#utility.yul\":2881:3153   */\n      pop\n      swap3\n      swap2\n      pop\n      pop\n      jump\t// out\n        /* \"#utility.yul\":3159:3277   */\n    tag_163:\n        /* \"#utility.yul\":3246:3270   */\n      tag_165\n        /* \"#utility.yul\":3264:3269   */\n      dup2\n        /* \"#utility.yul\":3246:3270   */\n      tag_166\n      jump\t// in\n    tag_165:\n        /* \"#utility.yul\":3241:3244   */\n      dup3\n        /* \"#utility.yul\":3234:3271   */\n      mstore\n        /* \"#utility.yul\":3224:3277   */\n      pop\n      pop\n      jump\t// out\n        /* \"#utility.yul\":3283:3505   */\n    tag_22:\n        /* \"#utility.yul\":3376:3380   */\n      0x00\n        /* \"#utility.yul\":3414:3416   */\n      0x20\n        /* \"#utility.yul\":3403:3412   */\n      dup3\n        /* \"#utility.yul\":3399:3417   */\n      add\n        /* \"#utility.yul\":3391:3417   */\n      swap1\n      pop\n        /* \"#utility.yul\":3427:3498   */\n      tag_168\n        /* \"#utility.yul\":3495:3496   */\n      0x00\n        /* \"#utility.yul\":3484:3493   */\n      dup4\n        /* \"#utility.yul\":3480:3497   */\n      add\n        /* \"#utility.yul\":3471:3477   */\n      dup5\n        /* \"#utility.yul\":3427:3498   */\n      tag_145\n      jump\t// in\n    tag_168:\n        /* \"#utility.yul\":3381:3505   */\n      swap3\n      swap2\n      pop\n      pop\n      jump\t// out\n        /* \"#utility.yul\":3511:3819   */\n    tag_33:\n        /* \"#utility.yul\":3620:3624   */\n      0x00\n        /* \"#utility.yul\":3658:3660   */\n      0x40\n        /* \"#utility.yul\":3647:3656   */\n      dup3\n        /* \"#utility.yul\":3643:3661   */\n      add\n        /* \"#utility.yul\":3635:3661   */\n      swap1\n      pop\n        /* \"#utility.yul\":3671:3736   */\n      tag_170\n        /* \"#utility.yul\":3733:3734   */\n      0x00\n        /* \"#utility.yul\":3722:3731   */\n      dup4\n        /* \"#utility.yul\":3718:3735   */\n      add\n        /* \"#utility.yul\":3709:3715   */\n      dup6\n        /* \"#utility.yul\":3671:3736   */\n      tag_149\n      jump\t// in\n    tag_170:\n        /* \"#utility.yul\":3746:3812   */\n      tag_171\n        /* \"#utility.yul\":3808:3810   */\n      0x20\n        /* \"#utility.yul\":3797:3806   */\n      dup4\n        /* \"#utility.yul\":3793:3811   */\n      add\n        /* \"#utility.yul\":3784:3790   */\n      dup5\n        /* \"#utility.yul\":3746:3812   */\n      tag_149\n      jump\t// in\n    tag_171:\n        /* \"#utility.yul\":3625:3819   */\n      swap4\n      swap3\n      pop\n      pop\n      pop\n      jump\t// out\n        /* \"#utility.yul\":3825:4568   */\n    tag_39:\n        /* \"#utility.yul\":4044:4048   */\n      0x00\n        /* \"#utility.yul\":4082:4085   */\n      0xa0\n        /* \"#utility.yul\":4071:4080   */\n      dup3\n        /* \"#utility.yul\":4067:4086   */\n      add\n        /* \"#utility.yul\":4059:4086   */\n      swap1\n      pop\n        /* \"#utility.yul\":4132:4141   */\n      dup2\n        /* \"#utility.yul\":4126:4130   */\n      dup2\n        /* \"#utility.yul\":4122:4142   */\n      sub\n        /* \"#utility.yul\":4118:4119   */\n      0x00\n        /* \"#utility.yul\":4107:4116   */\n      dup4\n        /* \"#utility.yul\":4103:4120   */\n      add\n        /* \"#utility.yul\":4096:4143   */\n      mstore\n        /* \"#utility.yul\":4160:4238   */\n      tag_173\n        /* \"#utility.yul\":4233:4237   */\n      dup2\n        /* \"#utility.yul\":4224:4230   */\n      dup9\n        /* \"#utility.yul\":4160:4238   */\n      tag_153\n      jump\t// in\n    tag_173:\n        /* \"#utility.yul\":4152:4238   */\n      swap1\n      pop\n        /* \"#utility.yul\":4248:4320   */\n      tag_174\n        /* \"#utility.yul\":4316:4318   */\n      0x20\n        /* \"#utility.yul\":4305:4314   */\n      dup4\n        /* \"#utility.yul\":4301:4319   */\n      add\n        /* \"#utility.yul\":4292:4298   */\n      dup8\n        /* \"#utility.yul\":4248:4320   */\n      tag_145\n      jump\t// in\n    tag_174:\n        /* \"#utility.yul\":4330:4402   */\n      tag_175\n        /* \"#utility.yul\":4398:4400   */\n      0x40\n        /* \"#utility.yul\":4387:4396   */\n      dup4\n        /* \"#utility.yul\":4383:4401   */\n      add\n        /* \"#utility.yul\":4374:4380   */\n      dup7\n        /* \"#utility.yul\":4330:4402   */\n      tag_163\n      jump\t// in\n    tag_175:\n        /* \"#utility.yul\":4412:4484   */\n      tag_176\n        /* \"#utility.yul\":4480:4482   */\n      0x60\n        /* \"#utility.yul\":4469:4478   */\n      dup4\n        /* \"#utility.yul\":4465:4483   */\n      add\n        /* \"#utility.yul\":4456:4462   */\n      dup6\n        /* \"#utility.yul\":4412:4484   */\n      tag_163\n      jump\t// in\n    tag_176:\n        /* \"#utility.yul\":4494:4561   */\n      tag_177\n        /* \"#utility.yul\":4556:4559   */\n      0x80\n        /* \"#utility.yul\":4545:4554   */\n      dup4\n        /* \"#utility.yul\":4541:4560   */\n      add\n        /* \"#utility.yul\":4532:4538   */\n      dup5\n        /* \"#utility.yul\":4494:4561   */\n      tag_149\n      jump\t// in\n    tag_177:\n        /* \"#utility.yul\":4049:4568   */\n      swap7\n      swap6\n      pop\n      pop\n      pop\n      pop\n      pop\n      pop\n      jump\t// out\n        /* \"#utility.yul\":4574:4796   */\n    tag_49:\n        /* \"#utility.yul\":4667:4671   */\n      0x00\n        /* \"#utility.yul\":4705:4707   */\n      0x20\n        /* \"#utility.yul\":4694:4703   */\n      dup3\n        /* \"#utility.yul\":4690:4708   */\n      add\n        /* \"#utility.yul\":4682:4708   */\n      swap1\n      pop\n        /* \"#utility.yul\":4718:4789   */\n      tag_179\n        /* \"#utility.yul\":4786:4787   */\n      0x00\n        /* \"#utility.yul\":4775:4784   */\n      dup4\n        /* \"#utility.yul\":4771:4788   */\n      add\n        /* \"#utility.yul\":4762:4768   */\n      dup5\n        /* \"#utility.yul\":4718:4789   */\n      tag_163\n      jump\t// in\n    tag_179:\n        /* \"#utility.yul\":4672:4796   */\n      swap3\n      swap2\n      pop\n      pop\n      jump\t// out\n        /* \"#utility.yul\":4802:4931   */\n    tag_107:\n        /* \"#utility.yul\":4836:4842   */\n      0x00\n        /* \"#utility.yul\":4863:4883   */\n      tag_181\n      tag_182\n      jump\t// in\n    tag_181:\n        /* \"#utility.yul\":4853:4883   */\n      swap1\n      pop\n        /* \"#utility.yul\":4892:4925   */\n      tag_183\n        /* \"#utility.yul\":4920:4924   */\n      dup3\n        /* \"#utility.yul\":4912:4918   */\n      dup3\n        /* \"#utility.yul\":4892:4925   */\n      tag_184\n      jump\t// in\n    tag_183:\n        /* \"#utility.yul\":4843:4931   */\n      swap2\n      swap1\n      pop\n      jump\t// out\n        /* \"#utility.yul\":4937:5012   */\n    tag_182:\n        /* \"#utility.yul\":4970:4976   */\n      0x00\n        /* \"#utility.yul\":5003:5005   */\n      0x40\n        /* \"#utility.yul\":4997:5006   */\n      mload\n        /* \"#utility.yul\":4987:5006   */\n      swap1\n      pop\n        /* \"#utility.yul\":4977:5012   */\n      swap1\n      jump\t// out\n        /* \"#utility.yul\":5018:5326   */\n    tag_106:\n        /* \"#utility.yul\":5080:5084   */\n      0x00\n        /* \"#utility.yul\":5170:5188   */\n      0xffffffffffffffff\n        /* \"#utility.yul\":5162:5168   */\n      dup3\n        /* \"#utility.yul\":5159:5189   */\n      gt\n        /* \"#utility.yul\":5156:5158   */\n      iszero\n      tag_187\n      jumpi\n        /* \"#utility.yul\":5192:5210   */\n      tag_188\n      tag_189\n      jump\t// in\n    tag_188:\n        /* \"#utility.yul\":5156:5158   */\n    tag_187:\n        /* \"#utility.yul\":5230:5259   */\n      tag_190\n        /* \"#utility.yul\":5252:5258   */\n      dup3\n        /* \"#utility.yul\":5230:5259   */\n      tag_162\n      jump\t// in\n    tag_190:\n        /* \"#utility.yul\":5222:5259   */\n      swap1\n      pop\n        /* \"#utility.yul\":5314:5318   */\n      0x20\n        /* \"#utility.yul\":5308:5312   */\n      dup2\n        /* \"#utility.yul\":5304:5319   */\n      add\n        /* \"#utility.yul\":5296:5319   */\n      swap1\n      pop\n        /* \"#utility.yul\":5085:5326   */\n      swap2\n      swap1\n      pop\n      jump\t// out\n        /* \"#utility.yul\":5332:5431   */\n    tag_156:\n        /* \"#utility.yul\":5384:5390   */\n      0x00\n        /* \"#utility.yul\":5418:5423   */\n      dup2\n        /* \"#utility.yul\":5412:5424   */\n      mload\n        /* \"#utility.yul\":5402:5424   */\n      swap1\n      pop\n        /* \"#utility.yul\":5391:5431   */\n      swap2\n      swap1\n      pop\n      jump\t// out\n        /* \"#utility.yul\":5437:5606   */\n    tag_158:\n        /* \"#utility.yul\":5521:5532   */\n      0x00\n        /* \"#utility.yul\":5555:5561   */\n      dup3\n        /* \"#utility.yul\":5550:5553   */\n      dup3\n        /* \"#utility.yul\":5543:5562   */\n      mstore\n        /* \"#utility.yul\":5595:5599   */\n      0x20\n        /* \"#utility.yul\":5590:5593   */\n      dup3\n        /* \"#utility.yul\":5586:5600   */\n      add\n        /* \"#utility.yul\":5571:5600   */\n      swap1\n      pop\n        /* \"#utility.yul\":5533:5606   */\n      swap3\n      swap2\n      pop\n      pop\n      jump\t// out\n        /* \"#utility.yul\":5612:5797   */\n    tag_71:\n        /* \"#utility.yul\":5652:5653   */\n      0x00\n        /* \"#utility.yul\":5669:5689   */\n      tag_194\n        /* \"#utility.yul\":5687:5688   */\n      dup3\n        /* \"#utility.yul\":5669:5689   */\n      tag_166\n      jump\t// in\n    tag_194:\n        /* \"#utility.yul\":5664:5689   */\n      swap2\n      pop\n        /* \"#utility.yul\":5703:5723   */\n      tag_195\n        /* \"#utility.yul\":5721:5722   */\n      dup4\n        /* \"#utility.yul\":5703:5723   */\n      tag_166\n      jump\t// in\n    tag_195:\n        /* \"#utility.yul\":5698:5723   */\n      swap3\n      pop\n        /* \"#utility.yul\":5742:5743   */\n      dup3\n        /* \"#utility.yul\":5732:5734   */\n      tag_196\n      jumpi\n        /* \"#utility.yul\":5747:5765   */\n      tag_197\n      tag_198\n      jump\t// in\n    tag_197:\n        /* \"#utility.yul\":5732:5734   */\n    tag_196:\n        /* \"#utility.yul\":5789:5790   */\n      dup3\n        /* \"#utility.yul\":5786:5787   */\n      dup3\n        /* \"#utility.yul\":5782:5791   */\n      div\n        /* \"#utility.yul\":5777:5791   */\n      swap1\n      pop\n        /* \"#utility.yul\":5654:5797   */\n      swap3\n      swap2\n      pop\n      pop\n      jump\t// out\n        /* \"#utility.yul\":5803:5899   */\n    tag_148:\n        /* \"#utility.yul\":5840:5847   */\n      0x00\n        /* \"#utility.yul\":5869:5893   */\n      tag_200\n        /* \"#utility.yul\":5887:5892   */\n      dup3\n        /* \"#utility.yul\":5869:5893   */\n      tag_201\n      jump\t// in\n    tag_200:\n        /* \"#utility.yul\":5858:5893   */\n      swap1\n      pop\n        /* \"#utility.yul\":5848:5899   */\n      swap2\n      swap1\n      pop\n      jump\t// out\n        /* \"#utility.yul\":5905:5995   */\n    tag_152:\n        /* \"#utility.yul\":5939:5946   */\n      0x00\n        /* \"#utility.yul\":5982:5987   */\n      dup2\n        /* \"#utility.yul\":5975:5988   */\n      iszero\n        /* \"#utility.yul\":5968:5989   */\n      iszero\n        /* \"#utility.yul\":5957:5989   */\n      swap1\n      pop\n        /* \"#utility.yul\":5947:5995   */\n      swap2\n      swap1\n      pop\n      jump\t// out\n        /* \"#utility.yul\":6001:6127   */\n    tag_201:\n        /* \"#utility.yul\":6038:6045   */\n      0x00\n        /* \"#utility.yul\":6078:6120   */\n      0xffffffffffffffffffffffffffffffffffffffff\n        /* \"#utility.yul\":6071:6076   */\n      dup3\n        /* \"#utility.yul\":6067:6121   */\n      and\n        /* \"#utility.yul\":6056:6121   */\n      swap1\n      pop\n        /* \"#utility.yul\":6046:6127   */\n      swap2\n      swap1\n      pop\n      jump\t// out\n        /* \"#utility.yul\":6133:6210   */\n    tag_166:\n        /* \"#utility.yul\":6170:6177   */\n      0x00\n        /* \"#utility.yul\":6199:6204   */\n      dup2\n        /* \"#utility.yul\":6188:6204   */\n      swap1\n      pop\n        /* \"#utility.yul\":6178:6210   */\n      swap2\n      swap1\n      pop\n      jump\t// out\n        /* \"#utility.yul\":6216:6370   */\n    tag_112:\n        /* \"#utility.yul\":6300:6306   */\n      dup3\n        /* \"#utility.yul\":6295:6298   */\n      dup2\n        /* \"#utility.yul\":6290:6293   */\n      dup4\n        /* \"#utility.yul\":6277:6307   */\n      calldatacopy\n        /* \"#utility.yul\":6362:6363   */\n      0x00\n        /* \"#utility.yul\":6353:6359   */\n      dup4\n        /* \"#utility.yul\":6348:6351   */\n      dup4\n        /* \"#utility.yul\":6344:6360   */\n      add\n        /* \"#utility.yul\":6337:6364   */\n      mstore\n        /* \"#utility.yul\":6267:6370   */\n      pop\n      pop\n      pop\n      jump\t// out\n        /* \"#utility.yul\":6376:6683   */\n    tag_160:\n        /* \"#utility.yul\":6444:6445   */\n      0x00\n        /* \"#utility.yul\":6454:6567   */\n    tag_207:\n        /* \"#utility.yul\":6468:6474   */\n      dup4\n        /* \"#utility.yul\":6465:6466   */\n      dup2\n        /* \"#utility.yul\":6462:6475   */\n      lt\n        /* \"#utility.yul\":6454:6567   */\n      iszero\n      tag_209\n      jumpi\n        /* \"#utility.yul\":6553:6554   */\n      dup1\n        /* \"#utility.yul\":6548:6551   */\n      dup3\n        /* \"#utility.yul\":6544:6555   */\n      add\n        /* \"#utility.yul\":6538:6556   */\n      mload\n        /* \"#utility.yul\":6534:6535   */\n      dup2\n        /* \"#utility.yul\":6529:6532   */\n      dup5\n        /* \"#utility.yul\":6525:6536   */\n      add\n        /* \"#utility.yul\":6518:6557   */\n      mstore\n        /* \"#utility.yul\":6490:6492   */\n      0x20\n        /* \"#utility.yul\":6487:6488   */\n      dup2\n        /* \"#utility.yul\":6483:6493   */\n      add\n        /* \"#utility.yul\":6478:6493   */\n      swap1\n      pop\n        /* \"#utility.yul\":6454:6567   */\n      jump(tag_207)\n    tag_209:\n        /* \"#utility.yul\":6585:6591   */\n      dup4\n        /* \"#utility.yul\":6582:6583   */\n      dup2\n        /* \"#utility.yul\":6579:6592   */\n      gt\n        /* \"#utility.yul\":6576:6578   */\n      iszero\n      tag_210\n      jumpi\n        /* \"#utility.yul\":6665:6666   */\n      0x00\n        /* \"#utility.yul\":6656:6662   */\n      dup5\n        /* \"#utility.yul\":6651:6654   */\n      dup5\n        /* \"#utility.yul\":6647:6663   */\n      add\n        /* \"#utility.yul\":6640:6667   */\n      mstore\n        /* \"#utility.yul\":6576:6578   */\n    tag_210:\n        /* \"#utility.yul\":6425:6683   */\n      pop\n      pop\n      pop\n      pop\n      jump\t// out\n        /* \"#utility.yul\":6689:7009   */\n    tag_76:\n        /* \"#utility.yul\":6733:6739   */\n      0x00\n        /* \"#utility.yul\":6770:6771   */\n      0x02\n        /* \"#utility.yul\":6764:6768   */\n      dup3\n        /* \"#utility.yul\":6760:6772   */\n      div\n        /* \"#utility.yul\":6750:6772   */\n      swap1\n      pop\n        /* \"#utility.yul\":6817:6818   */\n      0x01\n        /* \"#utility.yul\":6811:6815   */\n      dup3\n        /* \"#utility.yul\":6807:6819   */\n      and\n        /* \"#utility.yul\":6838:6856   */\n      dup1\n        /* \"#utility.yul\":6828:6830   */\n      tag_212\n      jumpi\n        /* \"#utility.yul\":6894:6898   */\n      0x7f\n        /* \"#utility.yul\":6886:6892   */\n      dup3\n        /* \"#utility.yul\":6882:6899   */\n      and\n        /* \"#utility.yul\":6872:6899   */\n      swap2\n      pop\n        /* \"#utility.yul\":6828:6830   */\n    tag_212:\n        /* \"#utility.yul\":6956:6958   */\n      0x20\n        /* \"#utility.yul\":6948:6954   */\n      dup3\n        /* \"#utility.yul\":6945:6959   */\n      lt\n        /* \"#utility.yul\":6925:6943   */\n      dup2\n        /* \"#utility.yul\":6922:6960   */\n      eq\n        /* \"#utility.yul\":6919:6921   */\n      iszero\n      tag_213\n      jumpi\n        /* \"#utility.yul\":6975:6993   */\n      tag_214\n      tag_215\n      jump\t// in\n    tag_214:\n        /* \"#utility.yul\":6919:6921   */\n    tag_213:\n        /* \"#utility.yul\":6740:7009   */\n      pop\n      swap2\n      swap1\n      pop\n      jump\t// out\n        /* \"#utility.yul\":7015:7296   */\n    tag_184:\n        /* \"#utility.yul\":7098:7125   */\n      tag_217\n        /* \"#utility.yul\":7120:7124   */\n      dup3\n        /* \"#utility.yul\":7098:7125   */\n      tag_162\n      jump\t// in\n    tag_217:\n        /* \"#utility.yul\":7090:7096   */\n      dup2\n        /* \"#utility.yul\":7086:7126   */\n      add\n        /* \"#utility.yul\":7228:7234   */\n      dup2\n        /* \"#utility.yul\":7216:7226   */\n      dup2\n        /* \"#utility.yul\":7213:7235   */\n      lt\n        /* \"#utility.yul\":7192:7210   */\n      0xffffffffffffffff\n        /* \"#utility.yul\":7180:7190   */\n      dup3\n        /* \"#utility.yul\":7177:7211   */\n      gt\n        /* \"#utility.yul\":7174:7236   */\n      or\n        /* \"#utility.yul\":7171:7173   */\n      iszero\n      tag_218\n      jumpi\n        /* \"#utility.yul\":7239:7257   */\n      tag_219\n      tag_189\n      jump\t// in\n    tag_219:\n        /* \"#utility.yul\":7171:7173   */\n    tag_218:\n        /* \"#utility.yul\":7279:7289   */\n      dup1\n        /* \"#utility.yul\":7275:7277   */\n      0x40\n        /* \"#utility.yul\":7268:7290   */\n      mstore\n        /* \"#utility.yul\":7058:7296   */\n      pop\n      pop\n      pop\n      jump\t// out\n        /* \"#utility.yul\":7302:7535   */\n    tag_66:\n        /* \"#utility.yul\":7341:7344   */\n      0x00\n        /* \"#utility.yul\":7364:7388   */\n      tag_221\n        /* \"#utility.yul\":7382:7387   */\n      dup3\n        /* \"#utility.yul\":7364:7388   */\n      tag_166\n      jump\t// in\n    tag_221:\n        /* \"#utility.yul\":7355:7388   */\n      swap2\n      pop\n        /* \"#utility.yul\":7410:7476   */\n      0xffffffffffffffffffffffffffffffffffffffffffffffffffffffffffffffff\n        /* \"#utility.yul\":7403:7408   */\n      dup3\n        /* \"#utility.yul\":7400:7477   */\n      eq\n        /* \"#utility.yul\":7397:7399   */\n      iszero\n      tag_222\n      jumpi\n        /* \"#utility.yul\":7480:7498   */\n      tag_223\n      tag_224\n      jump\t// in\n    tag_223:\n        /* \"#utility.yul\":7397:7399   */\n    tag_222:\n        /* \"#utility.yul\":7527:7528   */\n      0x01\n        /* \"#utility.yul\":7520:7525   */\n      dup3\n        /* \"#utility.yul\":7516:7529   */\n      add\n        /* \"#utility.yul\":7509:7529   */\n      swap1\n      pop\n        /* \"#utility.yul\":7345:7535   */\n      swap2\n      swap1\n      pop\n      jump\t// out\n        /* \"#utility.yul\":7541:7721   */\n    tag_224:\n        /* \"#utility.yul\":7589:7666   */\n      0x4e487b7100000000000000000000000000000000000000000000000000000000\n        /* \"#utility.yul\":7586:7587   */\n      0x00\n        /* \"#utility.yul\":7579:7667   */\n      mstore\n        /* \"#utility.yul\":7686:7690   */\n      0x11\n        /* \"#utility.yul\":7683:7684   */\n      0x04\n        /* \"#utility.yul\":7676:7691   */\n      mstore\n        /* \"#utility.yul\":7710:7714   */\n      0x24\n        /* \"#utility.yul\":7707:7708   */\n      0x00\n        /* \"#utility.yul\":7700:7715   */\n      revert\n        /* \"#utility.yul\":7727:7907   */\n    tag_198:\n        /* \"#utility.yul\":7775:7852   */\n      0x4e487b7100000000000000000000000000000000000000000000000000000000\n        /* \"#utility.yul\":7772:7773   */\n      0x00\n        /* \"#utility.yul\":7765:7853   */\n      mstore\n        /* \"#utility.yul\":7872:7876   */\n      0x12\n        /* \"#utility.yul\":7869:7870   */\n      0x04\n        /* \"#utility.yul\":7862:7877   */\n      mstore\n        /* \"#utility.yul\":7896:7900   */\n      0x24\n        /* \"#utility.yul\":7893:7894   */\n      0x00\n        /* \"#utility.yul\":7886:7901   */\n      revert\n        /* \"#utility.yul\":7913:8093   */\n    tag_215:\n        /* \"#utility.yul\":7961:8038   */\n      0x4e487b7100000000000000000000000000000000000000000000000000000000\n        /* \"#utility.yul\":7958:7959   */\n      0x00\n        /* \"#utility.yul\":7951:8039   */\n      mstore\n        /* \"#utility.yul\":8058:8062   */\n      0x22\n        /* \"#utility.yul\":8055:8056   */\n      0x04\n        /* \"#utility.yul\":8048:8063   */\n      mstore\n        /* \"#utility.yul\":8082:8086   */\n      0x24\n        /* \"#utility.yul\":8079:8080   */\n      0x00\n        /* \"#utility.yul\":8072:8087   */\n      revert\n        /* \"#utility.yul\":8099:8279   */\n    tag_189:\n        /* \"#utility.yul\":8147:8224   */\n      0x4e487b7100000000000000000000000000000000000000000000000000000000\n        /* \"#utility.yul\":8144:8145   */\n      0x00\n        /* \"#utility.yul\":8137:8225   */\n      mstore\n        /* \"#utility.yul\":8244:8248   */\n      0x41\n        /* \"#utility.yul\":8241:8242   */\n      0x04\n        /* \"#utility.yul\":8234:8249   */\n      mstore\n        /* \"#utility.yul\":8268:8272   */\n      0x24\n        /* \"#utility.yul\":8265:8266   */\n      0x00\n        /* \"#utility.yul\":8258:8273   */\n      revert\n        /* \"#utility.yul\":8285:8402   */\n    tag_121:\n        /* \"#utility.yul\":8394:8395   */\n      0x00\n        /* \"#utility.yul\":8391:8392   */\n      dup1\n        /* \"#utility.yul\":8384:8396   */\n      revert\n        /* \"#utility.yul\":8408:8525   */\n    tag_110:\n        /* \"#utility.yul\":8517:8518   */\n      0x00\n        /* \"#utility.yul\":8514:8515   */\n      dup1\n        /* \"#utility.yul\":8507:8519   */\n      revert\n        /* \"#utility.yul\":8531:8648   */\n    tag_137:\n        /* \"#utility.yul\":8640:8641   */\n      0x00\n        /* \"#utility.yul\":8637:8638   */\n      dup1\n        /* \"#utility.yul\":8630:8642   */\n      revert\n        /* \"#utility.yul\":8654:8771   */\n    tag_130:\n        /* \"#utility.yul\":8763:8764   */\n      0x00\n        /* \"#utility.yul\":8760:8761   */\n      dup1\n        /* \"#utility.yul\":8753:8765   */\n      revert\n        /* \"#utility.yul\":8777:8879   */\n    tag_162:\n        /* \"#utility.yul\":8818:8824   */\n      0x00\n        /* \"#utility.yul\":8869:8871   */\n      0x1f\n        /* \"#utility.yul\":8865:8872   */\n      not\n        /* \"#utility.yul\":8860:8862   */\n      0x1f\n        /* \"#utility.yul\":8853:8858   */\n      dup4\n        /* \"#utility.yul\":8849:8863   */\n      add\n        /* \"#utility.yul\":8845:8873   */\n      and\n        /* \"#utility.yul\":8835:8873   */\n      swap1\n      pop\n        /* \"#utility.yul\":8825:8879   */\n      swap2\n      swap1\n      pop\n      jump\t// out\n        /* \"#utility.yul\":8885:9007   */\n    tag_116:\n        /* \"#utility.yul\":8958:8982   */\n      tag_235\n        /* \"#utility.yul\":8976:8981   */\n      dup2\n        /* \"#utility.yul\":8958:8982   */\n      tag_148\n      jump\t// in\n    tag_235:\n        /* \"#utility.yul\":8951:8956   */\n      dup2\n        /* \"#utility.yul\":8948:8983   */\n      eq\n        /* \"#utility.yul\":8938:8940   */\n      tag_236\n      jumpi\n        /* \"#utility.yul\":8997:8998   */\n      0x00\n        /* \"#utility.yul\":8994:8995   */\n      dup1\n        /* \"#utility.yul\":8987:8999   */\n      revert\n        /* \"#utility.yul\":8938:8940   */\n    tag_236:\n        /* \"#utility.yul\":8928:9007   */\n      pop\n      jump\t// out\n        /* \"#utility.yul\":9013:9135   */\n    tag_126:\n        /* \"#utility.yul\":9086:9110   */\n      tag_238\n        /* \"#utility.yul\":9104:9109   */\n      dup2\n        /* \"#utility.yul\":9086:9110   */\n      tag_166\n      jump\t// in\n    tag_238:\n        /* \"#utility.yul\":9079:9084   */\n      dup2\n        /* \"#utility.yul\":9076:9111   */\n      eq\n        /* \"#utility.yul\":9066:9068   */\n      tag_239\n      jumpi\n        /* \"#utility.yul\":9125:9126   */\n      0x00\n        /* \"#utility.yul\":9122:9123   */\n      dup1\n        /* \"#utility.yul\":9115:9127   */\n      revert\n        /* \"#utility.yul\":9066:9068   */\n    tag_239:\n        /* \"#utility.yul\":9056:9135   */\n      pop\n      jump\t// out\n\n    auxdata: 0xa264697066735822122053bd6b6c43a0ee81132ef24828c973e8ddd6bba20ab25c92edef4593c2088ad164736f6c63430008050033\n}\n",
    "bytecode": {
      "linkReferences": {},
      "object": "608060405260006001553480156200001657600080fd5b50604051620010623803806200106283398181016040528101906200003c9190620000ba565b80600260006101000a81548173ffffffffffffffffffffffffffffffffffffffff021916908373ffffffffffffffffffffffffffffffffffffffff16021790555081600481905550505062000178565b6000815190506200009d8162000144565b92915050565b600081519050620000b4816200015e565b92915050565b60008060408385031215620000d457620000d36200013f565b5b6000620000e485828601620000a3565b9250506020620000f7858286016200008c565b9150509250929050565b60006200010e8262000115565b9050919050565b600073ffffffffffffffffffffffffffffffffffffffff82169050919050565b6000819050919050565b600080fd5b6200014f8162000101565b81146200015b57600080fd5b50565b620001698162000135565b81146200017557600080fd5b50565b610eda80620001886000396000f3fe6080604052600436106100905760003560e01c80635e4989f7116100595780635e4989f7146101915780637569b3d7146101ba578063937e09b1146101e55780639fd813e314610210578063f6ec847a1461023b57610090565b8062788ac014610095578063054f381b146100be57806310dc50d7146100e95780631f6d494214610112578063214288cc14610150575b600080fd5b3480156100a157600080fd5b506100bc60048036038101906100b79190610a70565b610245565b005b3480156100ca57600080fd5b506100d3610469565b6040516100e09190610b03565b60405180910390f35b3480156100f557600080fd5b50610110600480360381019061010b9190610a70565b61048f565b005b34801561011e57600080fd5b50610139600480360381019061013491906109d4565b6105be565b604051610147929190610b1e565b60405180910390f35b34801561015c57600080fd5b5061017760048036038101906101729190610a70565b6105fc565b604051610188959493929190610b47565b60405180910390f35b34801561019d57600080fd5b506101b860048036038101906101b39190610a01565b6106e7565b005b3480156101c657600080fd5b506101cf6107ff565b6040516101dc9190610ba1565b60405180910390f35b3480156101f157600080fd5b506101fa610805565b6040516102079190610ba1565b60405180910390f35b34801561021c57600080fd5b5061022561080b565b6040516102329190610ba1565b60405180910390f35b610243610813565b005b600260009054906101000a900473ffffffffffffffffffffffffffffffffffffffff1673ffffffffffffffffffffffffffffffffffffffff163373ffffffffffffffffffffffffffffffffffffffff1614156102a057600080fd5b600360003373ffffffffffffffffffffffffffffffffffffffff1673ffffffffffffffffffffffffffffffffffffffff16815260200190815260200160002060000160009054906101000a900460ff166102f957600080fd5b600360003373ffffffffffffffffffffffffffffffffffffffff1673ffffffffffffffffffffffffffffffffffffffff16815260200190815260200160002060000160019054906101000a900460ff161561035357600080fd5b60008082815260200190815260200160002060040160009054906101000a900460ff161561038057600080fd5b6000806000838152602001908152602001600020905060018160050160003373ffffffffffffffffffffffffffffffffffffffff1673ffffffffffffffffffffffffffffffffffffffff16815260200190815260200160002060006101000a81548160ff02191690831515021790555080600301600081548092919061040590610d4c565b91905055506001600360003373ffffffffffffffffffffffffffffffffffffffff1673ffffffffffffffffffffffffffffffffffffffff16815260200190815260200160002060000160016101000a81548160ff0219169083151502179055505050565b600260009054906101000a900473ffffffffffffffffffffffffffffffffffffffff1681565b600260009054906101000a900473ffffffffffffffffffffffffffffffffffffffff1673ffffffffffffffffffffffffffffffffffffffff163373ffffffffffffffffffffffffffffffffffffffff16146104e957600080fd5b60026005546104f89190610c2e565b600080838152602001908152602001600020600301541161051857600080fd5b600080600083815260200190815260200160002090508060010160009054906101000a900473ffffffffffffffffffffffffffffffffffffffff1673ffffffffffffffffffffffffffffffffffffffff166108fc82600201549081150290604051600060405180830381858888f1935050505015801561059c573d6000803e3d6000fd5b5060018160040160006101000a81548160ff0219169083151502179055505050565b60036020528060005260406000206000915090508060000160009054906101000a900460ff16908060000160019054906101000a900460ff16905082565b600060205280600052604060002060009150905080600001805461061f90610ce9565b80601f016020809104026020016040519081016040528092919081815260200182805461064b90610ce9565b80156106985780601f1061066d57610100808354040283529160200191610698565b820191906000526020600020905b81548152906001019060200180831161067b57829003601f168201915b5050505050908060010160009054906101000a900473ffffffffffffffffffffffffffffffffffffffff16908060020154908060030154908060040160009054906101000a900460ff16905085565b600260009054906101000a900473ffffffffffffffffffffffffffffffffffffffff1673ffffffffffffffffffffffffffffffffffffffff163373ffffffffffffffffffffffffffffffffffffffff161461074157600080fd5b60008060006001600081548092919061075990610d4c565b919050558152602001908152602001600020905083816000019080519060200190610785929190610897565b50818160010160006101000a81548173ffffffffffffffffffffffffffffffffffffffff021916908373ffffffffffffffffffffffffffffffffffffffff16021790555082816002018190555060008160040160006101000a81548160ff0219169083151502179055506000816003018190555050505050565b60055481565b60045481565b600047905090565b60045434101561082257600080fd5b6001600360003373ffffffffffffffffffffffffffffffffffffffff1673ffffffffffffffffffffffffffffffffffffffff16815260200190815260200160002060000160006101000a81548160ff0219169083151502179055506005600081548092919061089090610d4c565b9190505550565b8280546108a390610ce9565b90600052602060002090601f0160209004810192826108c5576000855561090c565b82601f106108de57805160ff191683800117855561090c565b8280016001018555821561090c579182015b8281111561090b5782518255916020019190600101906108f0565b5b509050610919919061091d565b5090565b5b8082111561093657600081600090555060010161091e565b5090565b600061094d61094884610be1565b610bbc565b90508281526020810184848401111561096957610968610e56565b5b610974848285610ca7565b509392505050565b60008135905061098b81610e76565b92915050565b600082601f8301126109a6576109a5610e51565b5b81356109b684826020860161093a565b91505092915050565b6000813590506109ce81610e8d565b92915050565b6000602082840312156109ea576109e9610e60565b5b60006109f88482850161097c565b91505092915050565b600080600060608486031215610a1a57610a19610e60565b5b600084013567ffffffffffffffff811115610a3857610a37610e5b565b5b610a4486828701610991565b9350506020610a55868287016109bf565b9250506040610a668682870161097c565b9150509250925092565b600060208284031215610a8657610a85610e60565b5b6000610a94848285016109bf565b91505092915050565b610aa681610c5f565b82525050565b610ab581610c71565b82525050565b6000610ac682610c12565b610ad08185610c1d565b9350610ae0818560208601610cb6565b610ae981610e65565b840191505092915050565b610afd81610c9d565b82525050565b6000602082019050610b186000830184610a9d565b92915050565b6000604082019050610b336000830185610aac565b610b406020830184610aac565b9392505050565b600060a0820190508181036000830152610b618188610abb565b9050610b706020830187610a9d565b610b7d6040830186610af4565b610b8a6060830185610af4565b610b976080830184610aac565b9695505050505050565b6000602082019050610bb66000830184610af4565b92915050565b6000610bc6610bd7565b9050610bd28282610d1b565b919050565b6000604051905090565b600067ffffffffffffffff821115610bfc57610bfb610e22565b5b610c0582610e65565b9050602081019050919050565b600081519050919050565b600082825260208201905092915050565b6000610c3982610c9d565b9150610c4483610c9d565b925082610c5457610c53610dc4565b5b828204905092915050565b6000610c6a82610c7d565b9050919050565b60008115159050919050565b600073ffffffffffffffffffffffffffffffffffffffff82169050919050565b6000819050919050565b82818337600083830152505050565b60005b83811015610cd4578082015181840152602081019050610cb9565b83811115610ce3576000848401525b50505050565b60006002820490506001821680610d0157607f821691505b60208210811415610d1557610d14610df3565b5b50919050565b610d2482610e65565b810181811067ffffffffffffffff82111715610d4357610d42610e22565b5b80604052505050565b6000610d5782610c9d565b91507fffffffffffffffffffffffffffffffffffffffffffffffffffffffffffffffff821415610d8a57610d89610d95565b5b600182019050919050565b7f4e487b7100000000000000000000000000000000000000000000000000000000600052601160045260246000fd5b7f4e487b7100000000000000000000000000000000000000000000000000000000600052601260045260246000fd5b7f4e487b7100000000000000000000000000000000000000000000000000000000600052602260045260246000fd5b7f4e487b7100000000000000000000000000000000000000000000000000000000600052604160045260246000fd5b600080fd5b600080fd5b600080fd5b600080fd5b6000601f19601f8301169050919050565b610e7f81610c5f565b8114610e8a57600080fd5b50565b610e9681610c9d565b8114610ea157600080fd5b5056fea264697066735822122053bd6b6c43a0ee81132ef24828c973e8ddd6bba20ab25c92edef4593c2088ad164736f6c63430008050033",
      "opcodes": "PUSH1 0x80 PUSH1 0x40 MSTORE PUSH1 0x0 PUSH1 0x1 SSTORE CALLVALUE DUP1 ISZERO PUSH3 0x16 JUMPI PUSH1 0x0 DUP1 REVERT JUMPDEST POP PUSH1 0x40 MLOAD PUSH3 0x1062 CODESIZE SUB DUP1 PUSH3 0x1062 DUP4 CODECOPY DUP2 DUP2 ADD PUSH1 0x40 MSTORE DUP2 ADD SWAP1 PUSH3 0x3C SWAP2 SWAP1 PUSH3 0xBA JUMP JUMPDEST DUP1 PUSH1 0x2 PUSH1 0x0 PUSH2 0x100 EXP DUP2 SLOAD DUP2 PUSH20 0xFFFFFFFFFFFFFFFFFFFFFFFFFFFFFFFFFFFFFFFF MUL NOT AND SWAP1 DUP4 PUSH20 0xFFFFFFFFFFFFFFFFFFFFFFFFFFFFFFFFFFFFFFFF AND MUL OR SWAP1 SSTORE POP DUP2 PUSH1 0x4 DUP2 SWAP1 SSTORE POP POP POP PUSH3 0x178 JUMP JUMPDEST PUSH1 0x0 DUP2 MLOAD SWAP1 POP PUSH3 0x9D DUP2 PUSH3 0x144 JUMP JUMPDEST SWAP3 SWAP2 POP POP JUMP JUMPDEST PUSH1 0x0 DUP2 MLOAD SWAP1 POP PUSH3 0xB4 DUP2 PUSH3 0x15E JUMP JUMPDEST SWAP3 SWAP2 POP POP JUMP JUMPDEST PUSH1 0x0 DUP1 PUSH1 0x40 DUP4 DUP6 SUB SLT ISZERO PUSH3 0xD4 JUMPI PUSH3 0xD3 PUSH3 0x13F JUMP JUMPDEST JUMPDEST PUSH1 0x0 PUSH3 0xE4 DUP6 DUP3 DUP7 ADD PUSH3 0xA3 JUMP JUMPDEST SWAP3 POP POP PUSH1 0x20 PUSH3 0xF7 DUP6 DUP3 DUP7 ADD PUSH3 0x8C JUMP JUMPDEST SWAP2 POP POP SWAP3 POP SWAP3 SWAP1 POP JUMP JUMPDEST PUSH1 0x0 PUSH3 0x10E DUP3 PUSH3 0x115 JUMP JUMPDEST SWAP1 POP SWAP2 SWAP1 POP JUMP JUMPDEST PUSH1 0x0 PUSH20 0xFFFFFFFFFFFFFFFFFFFFFFFFFFFFFFFFFFFFFFFF DUP3 AND SWAP1 POP SWAP2 SWAP1 POP JUMP JUMPDEST PUSH1 0x0 DUP2 SWAP1 POP SWAP2 SWAP1 POP JUMP JUMPDEST PUSH1 0x0 DUP1 REVERT JUMPDEST PUSH3 0x14F DUP2 PUSH3 0x101 JUMP JUMPDEST DUP2 EQ PUSH3 0x15B JUMPI PUSH1 0x0 DUP1 REVERT JUMPDEST POP JUMP JUMPDEST PUSH3 0x169 DUP2 PUSH3 0x135 JUMP JUMPDEST DUP2 EQ PUSH3 0x175 JUMPI PUSH1 0x0 DUP1 REVERT JUMPDEST POP JUMP JUMPDEST PUSH2 0xEDA DUP1 PUSH3 0x188 PUSH1 0x0 CODECOPY PUSH1 0x0 RETURN INVALID PUSH1 0x80 PUSH1 0x40 MSTORE PUSH1 0x4 CALLDATASIZE LT PUSH2 0x90 JUMPI PUSH1 0x0 CALLDATALOAD PUSH1 0xE0 SHR DUP1 PUSH4 0x5E4989F7 GT PUSH2 0x59 JUMPI DUP1 PUSH4 0x5E4989F7 EQ PUSH2 0x191 JUMPI DUP1 PUSH4 0x7569B3D7 EQ PUSH2 0x1BA JUMPI DUP1 PUSH4 0x937E09B1 EQ PUSH2 0x1E5 JUMPI DUP1 PUSH4 0x9FD813E3 EQ PUSH2 0x210 JUMPI DUP1 PUSH4 0xF6EC847A EQ PUSH2 0x23B JUMPI PUSH2 0x90 JUMP JUMPDEST DUP1 PUSH3 0x788AC0 EQ PUSH2 0x95 JUMPI DUP1 PUSH4 0x54F381B EQ PUSH2 0xBE JUMPI DUP1 PUSH4 0x10DC50D7 EQ PUSH2 0xE9 JUMPI DUP1 PUSH4 0x1F6D4942 EQ PUSH2 0x112 JUMPI DUP1 PUSH4 0x214288CC EQ PUSH2 0x150 JUMPI JUMPDEST PUSH1 0x0 DUP1 REVERT JUMPDEST CALLVALUE DUP1 ISZERO PUSH2 0xA1 JUMPI PUSH1 0x0 DUP1 REVERT JUMPDEST POP PUSH2 0xBC PUSH1 0x4 DUP1 CALLDATASIZE SUB DUP2 ADD SWAP1 PUSH2 0xB7 SWAP2 SWAP1 PUSH2 0xA70 JUMP JUMPDEST PUSH2 0x245 JUMP JUMPDEST STOP JUMPDEST CALLVALUE DUP1 ISZERO PUSH2 0xCA JUMPI PUSH1 0x0 DUP1 REVERT JUMPDEST POP PUSH2 0xD3 PUSH2 0x469 JUMP JUMPDEST PUSH1 0x40 MLOAD PUSH2 0xE0 SWAP2 SWAP1 PUSH2 0xB03 JUMP JUMPDEST PUSH1 0x40 MLOAD DUP1 SWAP2 SUB SWAP1 RETURN JUMPDEST CALLVALUE DUP1 ISZERO PUSH2 0xF5 JUMPI PUSH1 0x0 DUP1 REVERT JUMPDEST POP PUSH2 0x110 PUSH1 0x4 DUP1 CALLDATASIZE SUB DUP2 ADD SWAP1 PUSH2 0x10B SWAP2 SWAP1 PUSH2 0xA70 JUMP JUMPDEST PUSH2 0x48F JUMP JUMPDEST STOP JUMPDEST CALLVALUE DUP1 ISZERO PUSH2 0x11E JUMPI PUSH1 0x0 DUP1 REVERT JUMPDEST POP PUSH2 0x139 PUSH1 0x4 DUP1 CALLDATASIZE SUB DUP2 ADD SWAP1 PUSH2 0x134 SWAP2 SWAP1 PUSH2 0x9D4 JUMP JUMPDEST PUSH2 0x5BE JUMP JUMPDEST PUSH1 0x40 MLOAD PUSH2 0x147 SWAP3 SWAP2 SWAP1 PUSH2 0xB1E JUMP JUMPDEST PUSH1 0x40 MLOAD DUP1 SWAP2 SUB SWAP1 RETURN JUMPDEST CALLVALUE DUP1 ISZERO PUSH2 0x15C JUMPI PUSH1 0x0 DUP1 REVERT JUMPDEST POP PUSH2 0x177 PUSH1 0x4 DUP1 CALLDATASIZE SUB DUP2 ADD SWAP1 PUSH2 0x172 SWAP2 SWAP1 PUSH2 0xA70 JUMP JUMPDEST PUSH2 0x5FC JUMP JUMPDEST PUSH1 0x40 MLOAD PUSH2 0x188 SWAP6 SWAP5 SWAP4 SWAP3 SWAP2 SWAP1 PUSH2 0xB47 JUMP JUMPDEST PUSH1 0x40 MLOAD DUP1 SWAP2 SUB SWAP1 RETURN JUMPDEST CALLVALUE DUP1 ISZERO PUSH2 0x19D JUMPI PUSH1 0x0 DUP1 REVERT JUMPDEST POP PUSH2 0x1B8 PUSH1 0x4 DUP1 CALLDATASIZE SUB DUP2 ADD SWAP1 PUSH2 0x1B3 SWAP2 SWAP1 PUSH2 0xA01 JUMP JUMPDEST PUSH2 0x6E7 JUMP JUMPDEST STOP JUMPDEST CALLVALUE DUP1 ISZERO PUSH2 0x1C6 JUMPI PUSH1 0x0 DUP1 REVERT JUMPDEST POP PUSH2 0x1CF PUSH2 0x7FF JUMP JUMPDEST PUSH1 0x40 MLOAD PUSH2 0x1DC SWAP2 SWAP1 PUSH2 0xBA1 JUMP JUMPDEST PUSH1 0x40 MLOAD DUP1 SWAP2 SUB SWAP1 RETURN JUMPDEST CALLVALUE DUP1 ISZERO PUSH2 0x1F1 JUMPI PUSH1 0x0 DUP1 REVERT JUMPDEST POP PUSH2 0x1FA PUSH2 0x805 JUMP JUMPDEST PUSH1 0x40 MLOAD PUSH2 0x207 SWAP2 SWAP1 PUSH2 0xBA1 JUMP JUMPDEST PUSH1 0x40 MLOAD DUP1 SWAP2 SUB SWAP1 RETURN JUMPDEST CALLVALUE DUP1 ISZERO PUSH2 0x21C JUMPI PUSH1 0x0 DUP1 REVERT JUMPDEST POP PUSH2 0x225 PUSH2 0x80B JUMP JUMPDEST PUSH1 0x40 MLOAD PUSH2 0x232 SWAP2 SWAP1 PUSH2 0xBA1 JUMP JUMPDEST PUSH1 0x40 MLOAD DUP1 SWAP2 SUB SWAP1 RETURN JUMPDEST PUSH2 0x243 PUSH2 0x813 JUMP JUMPDEST STOP JUMPDEST PUSH1 0x2 PUSH1 0x0 SWAP1 SLOAD SWAP1 PUSH2 0x100 EXP SWAP1 DIV PUSH20 0xFFFFFFFFFFFFFFFFFFFFFFFFFFFFFFFFFFFFFFFF AND PUSH20 0xFFFFFFFFFFFFFFFFFFFFFFFFFFFFFFFFFFFFFFFF AND CALLER PUSH20 0xFFFFFFFFFFFFFFFFFFFFFFFFFFFFFFFFFFFFFFFF AND EQ ISZERO PUSH2 0x2A0 JUMPI PUSH1 0x0 DUP1 REVERT JUMPDEST PUSH1 0x3 PUSH1 0x0 CALLER PUSH20 0xFFFFFFFFFFFFFFFFFFFFFFFFFFFFFFFFFFFFFFFF AND PUSH20 0xFFFFFFFFFFFFFFFFFFFFFFFFFFFFFFFFFFFFFFFF AND DUP2 MSTORE PUSH1 0x20 ADD SWAP1 DUP2 MSTORE PUSH1 0x20 ADD PUSH1 0x0 KECCAK256 PUSH1 0x0 ADD PUSH1 0x0 SWAP1 SLOAD SWAP1 PUSH2 0x100 EXP SWAP1 DIV PUSH1 0xFF AND PUSH2 0x2F9 JUMPI PUSH1 0x0 DUP1 REVERT JUMPDEST PUSH1 0x3 PUSH1 0x0 CALLER PUSH20 0xFFFFFFFFFFFFFFFFFFFFFFFFFFFFFFFFFFFFFFFF AND PUSH20 0xFFFFFFFFFFFFFFFFFFFFFFFFFFFFFFFFFFFFFFFF AND DUP2 MSTORE PUSH1 0x20 ADD SWAP1 DUP2 MSTORE PUSH1 0x20 ADD PUSH1 0x0 KECCAK256 PUSH1 0x0 ADD PUSH1 0x1 SWAP1 SLOAD SWAP1 PUSH2 0x100 EXP SWAP1 DIV PUSH1 0xFF AND ISZERO PUSH2 0x353 JUMPI PUSH1 0x0 DUP1 REVERT JUMPDEST PUSH1 0x0 DUP1 DUP3 DUP2 MSTORE PUSH1 0x20 ADD SWAP1 DUP2 MSTORE PUSH1 0x20 ADD PUSH1 0x0 KECCAK256 PUSH1 0x4 ADD PUSH1 0x0 SWAP1 SLOAD SWAP1 PUSH2 0x100 EXP SWAP1 DIV PUSH1 0xFF AND ISZERO PUSH2 0x380 JUMPI PUSH1 0x0 DUP1 REVERT JUMPDEST PUSH1 0x0 DUP1 PUSH1 0x0 DUP4 DUP2 MSTORE PUSH1 0x20 ADD SWAP1 DUP2 MSTORE PUSH1 0x20 ADD PUSH1 0x0 KECCAK256 SWAP1 POP PUSH1 0x1 DUP2 PUSH1 0x5 ADD PUSH1 0x0 CALLER PUSH20 0xFFFFFFFFFFFFFFFFFFFFFFFFFFFFFFFFFFFFFFFF AND PUSH20 0xFFFFFFFFFFFFFFFFFFFFFFFFFFFFFFFFFFFFFFFF AND DUP2 MSTORE PUSH1 0x20 ADD SWAP1 DUP2 MSTORE PUSH1 0x20 ADD PUSH1 0x0 KECCAK256 PUSH1 0x0 PUSH2 0x100 EXP DUP2 SLOAD DUP2 PUSH1 0xFF MUL NOT AND SWAP1 DUP4 ISZERO ISZERO MUL OR SWAP1 SSTORE POP DUP1 PUSH1 0x3 ADD PUSH1 0x0 DUP2 SLOAD DUP1 SWAP3 SWAP2 SWAP1 PUSH2 0x405 SWAP1 PUSH2 0xD4C JUMP JUMPDEST SWAP2 SWAP1 POP SSTORE POP PUSH1 0x1 PUSH1 0x3 PUSH1 0x0 CALLER PUSH20 0xFFFFFFFFFFFFFFFFFFFFFFFFFFFFFFFFFFFFFFFF AND PUSH20 0xFFFFFFFFFFFFFFFFFFFFFFFFFFFFFFFFFFFFFFFF AND DUP2 MSTORE PUSH1 0x20 ADD SWAP1 DUP2 MSTORE PUSH1 0x20 ADD PUSH1 0x0 KECCAK256 PUSH1 0x0 ADD PUSH1 0x1 PUSH2 0x100 EXP DUP2 SLOAD DUP2 PUSH1 0xFF MUL NOT AND SWAP1 DUP4 ISZERO ISZERO MUL OR SWAP1 SSTORE POP POP POP JUMP JUMPDEST PUSH1 0x2 PUSH1 0x0 SWAP1 SLOAD SWAP1 PUSH2 0x100 EXP SWAP1 DIV PUSH20 0xFFFFFFFFFFFFFFFFFFFFFFFFFFFFFFFFFFFFFFFF AND DUP2 JUMP JUMPDEST PUSH1 0x2 PUSH1 0x0 SWAP1 SLOAD SWAP1 PUSH2 0x100 EXP SWAP1 DIV PUSH20 0xFFFFFFFFFFFFFFFFFFFFFFFFFFFFFFFFFFFFFFFF AND PUSH20 0xFFFFFFFFFFFFFFFFFFFFFFFFFFFFFFFFFFFFFFFF AND CALLER PUSH20 0xFFFFFFFFFFFFFFFFFFFFFFFFFFFFFFFFFFFFFFFF AND EQ PUSH2 0x4E9 JUMPI PUSH1 0x0 DUP1 REVERT JUMPDEST PUSH1 0x2 PUSH1 0x5 SLOAD PUSH2 0x4F8 SWAP2 SWAP1 PUSH2 0xC2E JUMP JUMPDEST PUSH1 0x0 DUP1 DUP4 DUP2 MSTORE PUSH1 0x20 ADD SWAP1 DUP2 MSTORE PUSH1 0x20 ADD PUSH1 0x0 KECCAK256 PUSH1 0x3 ADD SLOAD GT PUSH2 0x518 JUMPI PUSH1 0x0 DUP1 REVERT JUMPDEST PUSH1 0x0 DUP1 PUSH1 0x0 DUP4 DUP2 MSTORE PUSH1 0x20 ADD SWAP1 DUP2 MSTORE PUSH1 0x20 ADD PUSH1 0x0 KECCAK256 SWAP1 POP DUP1 PUSH1 0x1 ADD PUSH1 0x0 SWAP1 SLOAD SWAP1 PUSH2 0x100 EXP SWAP1 DIV PUSH20 0xFFFFFFFFFFFFFFFFFFFFFFFFFFFFFFFFFFFFFFFF AND PUSH20 0xFFFFFFFFFFFFFFFFFFFFFFFFFFFFFFFFFFFFFFFF AND PUSH2 0x8FC DUP3 PUSH1 0x2 ADD SLOAD SWAP1 DUP2 ISZERO MUL SWAP1 PUSH1 0x40 MLOAD PUSH1 0x0 PUSH1 0x40 MLOAD DUP1 DUP4 SUB DUP2 DUP6 DUP9 DUP9 CALL SWAP4 POP POP POP POP ISZERO DUP1 ISZERO PUSH2 0x59C JUMPI RETURNDATASIZE PUSH1 0x0 DUP1 RETURNDATACOPY RETURNDATASIZE PUSH1 0x0 REVERT JUMPDEST POP PUSH1 0x1 DUP2 PUSH1 0x4 ADD PUSH1 0x0 PUSH2 0x100 EXP DUP2 SLOAD DUP2 PUSH1 0xFF MUL NOT AND SWAP1 DUP4 ISZERO ISZERO MUL OR SWAP1 SSTORE POP POP POP JUMP JUMPDEST PUSH1 0x3 PUSH1 0x20 MSTORE DUP1 PUSH1 0x0 MSTORE PUSH1 0x40 PUSH1 0x0 KECCAK256 PUSH1 0x0 SWAP2 POP SWAP1 POP DUP1 PUSH1 0x0 ADD PUSH1 0x0 SWAP1 SLOAD SWAP1 PUSH2 0x100 EXP SWAP1 DIV PUSH1 0xFF AND SWAP1 DUP1 PUSH1 0x0 ADD PUSH1 0x1 SWAP1 SLOAD SWAP1 PUSH2 0x100 EXP SWAP1 DIV PUSH1 0xFF AND SWAP1 POP DUP3 JUMP JUMPDEST PUSH1 0x0 PUSH1 0x20 MSTORE DUP1 PUSH1 0x0 MSTORE PUSH1 0x40 PUSH1 0x0 KECCAK256 PUSH1 0x0 SWAP2 POP SWAP1 POP DUP1 PUSH1 0x0 ADD DUP1 SLOAD PUSH2 0x61F SWAP1 PUSH2 0xCE9 JUMP JUMPDEST DUP1 PUSH1 0x1F ADD PUSH1 0x20 DUP1 SWAP2 DIV MUL PUSH1 0x20 ADD PUSH1 0x40 MLOAD SWAP1 DUP2 ADD PUSH1 0x40 MSTORE DUP1 SWAP3 SWAP2 SWAP1 DUP2 DUP2 MSTORE PUSH1 0x20 ADD DUP3 DUP1 SLOAD PUSH2 0x64B SWAP1 PUSH2 0xCE9 JUMP JUMPDEST DUP1 ISZERO PUSH2 0x698 JUMPI DUP1 PUSH1 0x1F LT PUSH2 0x66D JUMPI PUSH2 0x100 DUP1 DUP4 SLOAD DIV MUL DUP4 MSTORE SWAP2 PUSH1 0x20 ADD SWAP2 PUSH2 0x698 JUMP JUMPDEST DUP3 ADD SWAP2 SWAP1 PUSH1 0x0 MSTORE PUSH1 0x20 PUSH1 0x0 KECCAK256 SWAP1 JUMPDEST DUP2 SLOAD DUP2 MSTORE SWAP1 PUSH1 0x1 ADD SWAP1 PUSH1 0x20 ADD DUP1 DUP4 GT PUSH2 0x67B JUMPI DUP3 SWAP1 SUB PUSH1 0x1F AND DUP3 ADD SWAP2 JUMPDEST POP POP POP POP POP SWAP1 DUP1 PUSH1 0x1 ADD PUSH1 0x0 SWAP1 SLOAD SWAP1 PUSH2 0x100 EXP SWAP1 DIV PUSH20 0xFFFFFFFFFFFFFFFFFFFFFFFFFFFFFFFFFFFFFFFF AND SWAP1 DUP1 PUSH1 0x2 ADD SLOAD SWAP1 DUP1 PUSH1 0x3 ADD SLOAD SWAP1 DUP1 PUSH1 0x4 ADD PUSH1 0x0 SWAP1 SLOAD SWAP1 PUSH2 0x100 EXP SWAP1 DIV PUSH1 0xFF AND SWAP1 POP DUP6 JUMP JUMPDEST PUSH1 0x2 PUSH1 0x0 SWAP1 SLOAD SWAP1 PUSH2 0x100 EXP SWAP1 DIV PUSH20 0xFFFFFFFFFFFFFFFFFFFFFFFFFFFFFFFFFFFFFFFF AND PUSH20 0xFFFFFFFFFFFFFFFFFFFFFFFFFFFFFFFFFFFFFFFF AND CALLER PUSH20 0xFFFFFFFFFFFFFFFFFFFFFFFFFFFFFFFFFFFFFFFF AND EQ PUSH2 0x741 JUMPI PUSH1 0x0 DUP1 REVERT JUMPDEST PUSH1 0x0 DUP1 PUSH1 0x0 PUSH1 0x1 PUSH1 0x0 DUP2 SLOAD DUP1 SWAP3 SWAP2 SWAP1 PUSH2 0x759 SWAP1 PUSH2 0xD4C JUMP JUMPDEST SWAP2 SWAP1 POP SSTORE DUP2 MSTORE PUSH1 0x20 ADD SWAP1 DUP2 MSTORE PUSH1 0x20 ADD PUSH1 0x0 KECCAK256 SWAP1 POP DUP4 DUP2 PUSH1 0x0 ADD SWAP1 DUP1 MLOAD SWAP1 PUSH1 0x20 ADD SWAP1 PUSH2 0x785 SWAP3 SWAP2 SWAP1 PUSH2 0x897 JUMP JUMPDEST POP DUP2 DUP2 PUSH1 0x1 ADD PUSH1 0x0 PUSH2 0x100 EXP DUP2 SLOAD DUP2 PUSH20 0xFFFFFFFFFFFFFFFFFFFFFFFFFFFFFFFFFFFFFFFF MUL NOT AND SWAP1 DUP4 PUSH20 0xFFFFFFFFFFFFFFFFFFFFFFFFFFFFFFFFFFFFFFFF AND MUL OR SWAP1 SSTORE POP DUP3 DUP2 PUSH1 0x2 ADD DUP2 SWAP1 SSTORE POP PUSH1 0x0 DUP2 PUSH1 0x4 ADD PUSH1 0x0 PUSH2 0x100 EXP DUP2 SLOAD DUP2 PUSH1 0xFF MUL NOT AND SWAP1 DUP4 ISZERO ISZERO MUL OR SWAP1 SSTORE POP PUSH1 0x0 DUP2 PUSH1 0x3 ADD DUP2 SWAP1 SSTORE POP POP POP POP POP JUMP JUMPDEST PUSH1 0x5 SLOAD DUP2 JUMP JUMPDEST PUSH1 0x4 SLOAD DUP2 JUMP JUMPDEST PUSH1 0x0 SELFBALANCE SWAP1 POP SWAP1 JUMP JUMPDEST PUSH1 0x4 SLOAD CALLVALUE LT ISZERO PUSH2 0x822 JUMPI PUSH1 0x0 DUP1 REVERT JUMPDEST PUSH1 0x1 PUSH1 0x3 PUSH1 0x0 CALLER PUSH20 0xFFFFFFFFFFFFFFFFFFFFFFFFFFFFFFFFFFFFFFFF AND PUSH20 0xFFFFFFFFFFFFFFFFFFFFFFFFFFFFFFFFFFFFFFFF AND DUP2 MSTORE PUSH1 0x20 ADD SWAP1 DUP2 MSTORE PUSH1 0x20 ADD PUSH1 0x0 KECCAK256 PUSH1 0x0 ADD PUSH1 0x0 PUSH2 0x100 EXP DUP2 SLOAD DUP2 PUSH1 0xFF MUL NOT AND SWAP1 DUP4 ISZERO ISZERO MUL OR SWAP1 SSTORE POP PUSH1 0x5 PUSH1 0x0 DUP2 SLOAD DUP1 SWAP3 SWAP2 SWAP1 PUSH2 0x890 SWAP1 PUSH2 0xD4C JUMP JUMPDEST SWAP2 SWAP1 POP SSTORE POP JUMP JUMPDEST DUP3 DUP1 SLOAD PUSH2 0x8A3 SWAP1 PUSH2 0xCE9 JUMP JUMPDEST SWAP1 PUSH1 0x0 MSTORE PUSH1 0x20 PUSH1 0x0 KECCAK256 SWAP1 PUSH1 0x1F ADD PUSH1 0x20 SWAP1 DIV DUP2 ADD SWAP3 DUP3 PUSH2 0x8C5 JUMPI PUSH1 0x0 DUP6 SSTORE PUSH2 0x90C JUMP JUMPDEST DUP3 PUSH1 0x1F LT PUSH2 0x8DE JUMPI DUP1 MLOAD PUSH1 0xFF NOT AND DUP4 DUP1 ADD OR DUP6 SSTORE PUSH2 0x90C JUMP JUMPDEST DUP3 DUP1 ADD PUSH1 0x1 ADD DUP6 SSTORE DUP3 ISZERO PUSH2 0x90C JUMPI SWAP2 DUP3 ADD JUMPDEST DUP3 DUP2 GT ISZERO PUSH2 0x90B JUMPI DUP3 MLOAD DUP3 SSTORE SWAP2 PUSH1 0x20 ADD SWAP2 SWAP1 PUSH1 0x1 ADD SWAP1 PUSH2 0x8F0 JUMP JUMPDEST JUMPDEST POP SWAP1 POP PUSH2 0x919 SWAP2 SWAP1 PUSH2 0x91D JUMP JUMPDEST POP SWAP1 JUMP JUMPDEST JUMPDEST DUP1 DUP3 GT ISZERO PUSH2 0x936 JUMPI PUSH1 0x0 DUP2 PUSH1 0x0 SWAP1 SSTORE POP PUSH1 0x1 ADD PUSH2 0x91E JUMP JUMPDEST POP SWAP1 JUMP JUMPDEST PUSH1 0x0 PUSH2 0x94D PUSH2 0x948 DUP5 PUSH2 0xBE1 JUMP JUMPDEST PUSH2 0xBBC JUMP JUMPDEST SWAP1 POP DUP3 DUP2 MSTORE PUSH1 0x20 DUP2 ADD DUP5 DUP5 DUP5 ADD GT ISZERO PUSH2 0x969 JUMPI PUSH2 0x968 PUSH2 0xE56 JUMP JUMPDEST JUMPDEST PUSH2 0x974 DUP5 DUP3 DUP6 PUSH2 0xCA7 JUMP JUMPDEST POP SWAP4 SWAP3 POP POP POP JUMP JUMPDEST PUSH1 0x0 DUP2 CALLDATALOAD SWAP1 POP PUSH2 0x98B DUP2 PUSH2 0xE76 JUMP JUMPDEST SWAP3 SWAP2 POP POP JUMP JUMPDEST PUSH1 0x0 DUP3 PUSH1 0x1F DUP4 ADD SLT PUSH2 0x9A6 JUMPI PUSH2 0x9A5 PUSH2 0xE51 JUMP JUMPDEST JUMPDEST DUP2 CALLDATALOAD PUSH2 0x9B6 DUP5 DUP3 PUSH1 0x20 DUP7 ADD PUSH2 0x93A JUMP JUMPDEST SWAP2 POP POP SWAP3 SWAP2 POP POP JUMP JUMPDEST PUSH1 0x0 DUP2 CALLDATALOAD SWAP1 POP PUSH2 0x9CE DUP2 PUSH2 0xE8D JUMP JUMPDEST SWAP3 SWAP2 POP POP JUMP JUMPDEST PUSH1 0x0 PUSH1 0x20 DUP3 DUP5 SUB SLT ISZERO PUSH2 0x9EA JUMPI PUSH2 0x9E9 PUSH2 0xE60 JUMP JUMPDEST JUMPDEST PUSH1 0x0 PUSH2 0x9F8 DUP5 DUP3 DUP6 ADD PUSH2 0x97C JUMP JUMPDEST SWAP2 POP POP SWAP3 SWAP2 POP POP JUMP JUMPDEST PUSH1 0x0 DUP1 PUSH1 0x0 PUSH1 0x60 DUP5 DUP7 SUB SLT ISZERO PUSH2 0xA1A JUMPI PUSH2 0xA19 PUSH2 0xE60 JUMP JUMPDEST JUMPDEST PUSH1 0x0 DUP5 ADD CALLDATALOAD PUSH8 0xFFFFFFFFFFFFFFFF DUP2 GT ISZERO PUSH2 0xA38 JUMPI PUSH2 0xA37 PUSH2 0xE5B JUMP JUMPDEST JUMPDEST PUSH2 0xA44 DUP7 DUP3 DUP8 ADD PUSH2 0x991 JUMP JUMPDEST SWAP4 POP POP PUSH1 0x20 PUSH2 0xA55 DUP7 DUP3 DUP8 ADD PUSH2 0x9BF JUMP JUMPDEST SWAP3 POP POP PUSH1 0x40 PUSH2 0xA66 DUP7 DUP3 DUP8 ADD PUSH2 0x97C JUMP JUMPDEST SWAP2 POP POP SWAP3 POP SWAP3 POP SWAP3 JUMP JUMPDEST PUSH1 0x0 PUSH1 0x20 DUP3 DUP5 SUB SLT ISZERO PUSH2 0xA86 JUMPI PUSH2 0xA85 PUSH2 0xE60 JUMP JUMPDEST JUMPDEST PUSH1 0x0 PUSH2 0xA94 DUP5 DUP3 DUP6 ADD PUSH2 0x9BF JUMP JUMPDEST SWAP2 POP POP SWAP3 SWAP2 POP POP JUMP JUMPDEST PUSH2 0xAA6 DUP2 PUSH2 0xC5F JUMP JUMPDEST DUP3 MSTORE POP POP JUMP JUMPDEST PUSH2 0xAB5 DUP2 PUSH2 0xC71 JUMP JUMPDEST DUP3 MSTORE POP POP JUMP JUMPDEST PUSH1 0x0 PUSH2 0xAC6 DUP3 PUSH2 0xC12 JUMP JUMPDEST PUSH2 0xAD0 DUP2 DUP6 PUSH2 0xC1D JUMP JUMPDEST SWAP4 POP PUSH2 0xAE0 DUP2 DUP6 PUSH1 0x20 DUP7 ADD PUSH2 0xCB6 JUMP JUMPDEST PUSH2 0xAE9 DUP2 PUSH2 0xE65 JUMP JUMPDEST DUP5 ADD SWAP2 POP POP SWAP3 SWAP2 POP POP JUMP JUMPDEST PUSH2 0xAFD DUP2 PUSH2 0xC9D JUMP JUMPDEST DUP3 MSTORE POP POP JUMP JUMPDEST PUSH1 0x0 PUSH1 0x20 DUP3 ADD SWAP1 POP PUSH2 0xB18 PUSH1 0x0 DUP4 ADD DUP5 PUSH2 0xA9D JUMP JUMPDEST SWAP3 SWAP2 POP POP JUMP JUMPDEST PUSH1 0x0 PUSH1 0x40 DUP3 ADD SWAP1 POP PUSH2 0xB33 PUSH1 0x0 DUP4 ADD DUP6 PUSH2 0xAAC JUMP JUMPDEST PUSH2 0xB40 PUSH1 0x20 DUP4 ADD DUP5 PUSH2 0xAAC JUMP JUMPDEST SWAP4 SWAP3 POP POP POP JUMP JUMPDEST PUSH1 0x0 PUSH1 0xA0 DUP3 ADD SWAP1 POP DUP2 DUP2 SUB PUSH1 0x0 DUP4 ADD MSTORE PUSH2 0xB61 DUP2 DUP9 PUSH2 0xABB JUMP JUMPDEST SWAP1 POP PUSH2 0xB70 PUSH1 0x20 DUP4 ADD DUP8 PUSH2 0xA9D JUMP JUMPDEST PUSH2 0xB7D PUSH1 0x40 DUP4 ADD DUP7 PUSH2 0xAF4 JUMP JUMPDEST PUSH2 0xB8A PUSH1 0x60 DUP4 ADD DUP6 PUSH2 0xAF4 JUMP JUMPDEST PUSH2 0xB97 PUSH1 0x80 DUP4 ADD DUP5 PUSH2 0xAAC JUMP JUMPDEST SWAP7 SWAP6 POP POP POP POP POP POP JUMP JUMPDEST PUSH1 0x0 PUSH1 0x20 DUP3 ADD SWAP1 POP PUSH2 0xBB6 PUSH1 0x0 DUP4 ADD DUP5 PUSH2 0xAF4 JUMP JUMPDEST SWAP3 SWAP2 POP POP JUMP JUMPDEST PUSH1 0x0 PUSH2 0xBC6 PUSH2 0xBD7 JUMP JUMPDEST SWAP1 POP PUSH2 0xBD2 DUP3 DUP3 PUSH2 0xD1B JUMP JUMPDEST SWAP2 SWAP1 POP JUMP JUMPDEST PUSH1 0x0 PUSH1 0x40 MLOAD SWAP1 POP SWAP1 JUMP JUMPDEST PUSH1 0x0 PUSH8 0xFFFFFFFFFFFFFFFF DUP3 GT ISZERO PUSH2 0xBFC JUMPI PUSH2 0xBFB PUSH2 0xE22 JUMP JUMPDEST JUMPDEST PUSH2 0xC05 DUP3 PUSH2 0xE65 JUMP JUMPDEST SWAP1 POP PUSH1 0x20 DUP2 ADD SWAP1 POP SWAP2 SWAP1 POP JUMP JUMPDEST PUSH1 0x0 DUP2 MLOAD SWAP1 POP SWAP2 SWAP1 POP JUMP JUMPDEST PUSH1 0x0 DUP3 DUP3 MSTORE PUSH1 0x20 DUP3 ADD SWAP1 POP SWAP3 SWAP2 POP POP JUMP JUMPDEST PUSH1 0x0 PUSH2 0xC39 DUP3 PUSH2 0xC9D JUMP JUMPDEST SWAP2 POP PUSH2 0xC44 DUP4 PUSH2 0xC9D JUMP JUMPDEST SWAP3 POP DUP3 PUSH2 0xC54 JUMPI PUSH2 0xC53 PUSH2 0xDC4 JUMP JUMPDEST JUMPDEST DUP3 DUP3 DIV SWAP1 POP SWAP3 SWAP2 POP POP JUMP JUMPDEST PUSH1 0x0 PUSH2 0xC6A DUP3 PUSH2 0xC7D JUMP JUMPDEST SWAP1 POP SWAP2 SWAP1 POP JUMP JUMPDEST PUSH1 0x0 DUP2 ISZERO ISZERO SWAP1 POP SWAP2 SWAP1 POP JUMP JUMPDEST PUSH1 0x0 PUSH20 0xFFFFFFFFFFFFFFFFFFFFFFFFFFFFFFFFFFFFFFFF DUP3 AND SWAP1 POP SWAP2 SWAP1 POP JUMP JUMPDEST PUSH1 0x0 DUP2 SWAP1 POP SWAP2 SWAP1 POP JUMP JUMPDEST DUP3 DUP2 DUP4 CALLDATACOPY PUSH1 0x0 DUP4 DUP4 ADD MSTORE POP POP POP JUMP JUMPDEST PUSH1 0x0 JUMPDEST DUP4 DUP2 LT ISZERO PUSH2 0xCD4 JUMPI DUP1 DUP3 ADD MLOAD DUP2 DUP5 ADD MSTORE PUSH1 0x20 DUP2 ADD SWAP1 POP PUSH2 0xCB9 JUMP JUMPDEST DUP4 DUP2 GT ISZERO PUSH2 0xCE3 JUMPI PUSH1 0x0 DUP5 DUP5 ADD MSTORE JUMPDEST POP POP POP POP JUMP JUMPDEST PUSH1 0x0 PUSH1 0x2 DUP3 DIV SWAP1 POP PUSH1 0x1 DUP3 AND DUP1 PUSH2 0xD01 JUMPI PUSH1 0x7F DUP3 AND SWAP2 POP JUMPDEST PUSH1 0x20 DUP3 LT DUP2 EQ ISZERO PUSH2 0xD15 JUMPI PUSH2 0xD14 PUSH2 0xDF3 JUMP JUMPDEST JUMPDEST POP SWAP2 SWAP1 POP JUMP JUMPDEST PUSH2 0xD24 DUP3 PUSH2 0xE65 JUMP JUMPDEST DUP2 ADD DUP2 DUP2 LT PUSH8 0xFFFFFFFFFFFFFFFF DUP3 GT OR ISZERO PUSH2 0xD43 JUMPI PUSH2 0xD42 PUSH2 0xE22 JUMP JUMPDEST JUMPDEST DUP1 PUSH1 0x40 MSTORE POP POP POP JUMP JUMPDEST PUSH1 0x0 PUSH2 0xD57 DUP3 PUSH2 0xC9D JUMP JUMPDEST SWAP2 POP PUSH32 0xFFFFFFFFFFFFFFFFFFFFFFFFFFFFFFFFFFFFFFFFFFFFFFFFFFFFFFFFFFFFFFFF DUP3 EQ ISZERO PUSH2 0xD8A JUMPI PUSH2 0xD89 PUSH2 0xD95 JUMP JUMPDEST JUMPDEST PUSH1 0x1 DUP3 ADD SWAP1 POP SWAP2 SWAP1 POP JUMP JUMPDEST PUSH32 0x4E487B7100000000000000000000000000000000000000000000000000000000 PUSH1 0x0 MSTORE PUSH1 0x11 PUSH1 0x4 MSTORE PUSH1 0x24 PUSH1 0x0 REVERT JUMPDEST PUSH32 0x4E487B7100000000000000000000000000000000000000000000000000000000 PUSH1 0x0 MSTORE PUSH1 0x12 PUSH1 0x4 MSTORE PUSH1 0x24 PUSH1 0x0 REVERT JUMPDEST PUSH32 0x4E487B7100000000000000000000000000000000000000000000000000000000 PUSH1 0x0 MSTORE PUSH1 0x22 PUSH1 0x4 MSTORE PUSH1 0x24 PUSH1 0x0 REVERT JUMPDEST PUSH32 0x4E487B7100000000000000000000000000000000000000000000000000000000 PUSH1 0x0 MSTORE PUSH1 0x41 PUSH1 0x4 MSTORE PUSH1 0x24 PUSH1 0x0 REVERT JUMPDEST PUSH1 0x0 DUP1 REVERT JUMPDEST PUSH1 0x0 DUP1 REVERT JUMPDEST PUSH1 0x0 DUP1 REVERT JUMPDEST PUSH1 0x0 DUP1 REVERT JUMPDEST PUSH1 0x0 PUSH1 0x1F NOT PUSH1 0x1F DUP4 ADD AND SWAP1 POP SWAP2 SWAP1 POP JUMP JUMPDEST PUSH2 0xE7F DUP2 PUSH2 0xC5F JUMP JUMPDEST DUP2 EQ PUSH2 0xE8A JUMPI PUSH1 0x0 DUP1 REVERT JUMPDEST POP JUMP JUMPDEST PUSH2 0xE96 DUP2 PUSH2 0xC9D JUMP JUMPDEST DUP2 EQ PUSH2 0xEA1 JUMPI PUSH1 0x0 DUP1 REVERT JUMPDEST POP JUMP INVALID LOG2 PUSH5 0x6970667358 0x22 SLT KECCAK256 MSTORE8 0xBD PUSH12 0x6C43A0EE81132EF24828C973 0xE8 0xDD 0xD6 0xBB LOG2 EXP 0xB2 0x5C SWAP3 0xED 0xEF GASLIMIT SWAP4 0xC2 ADDMOD DUP11 0xD1 PUSH5 0x736F6C6343 STOP ADDMOD SDIV STOP CALLER "
    },
    "gasEstimates": {
      "creation": {
        "codeDepositCost": "760400",
        "executionCost": "infinite",
        "totalCost": "infinite"
      },
      "external": {
        "approveWithrawalRequests(uint256)": "infinite",
        "contributeToBusiness()": "51055",
        "contributors(address)": "infinite",
        "contributorsCount()": "2451",
        "entrepreneur()": "2537",
        "getTotalFund()": "405",
        "initiateRequest(string,uint256,address)": "infinite",
        "minimumContribution()": "2473",
        "withrawFunds(uint256)": "infinite",
        "withrawalRequests(uint256)": "infinite"
      }
    },
    "methodIdentifiers": {
      "approveWithrawalRequests(uint256)": "00788ac0",
      "contributeToBusiness()": "f6ec847a",
      "contributors(address)": "1f6d4942",
      "contributorsCount()": "7569b3d7",
      "entrepreneur()": "054f381b",
      "getTotalFund()": "9fd813e3",
      "initiateRequest(string,uint256,address)": "5e4989f7",
      "minimumContribution()": "937e09b1",
      "withrawFunds(uint256)": "10dc50d7",
      "withrawalRequests(uint256)": "214288cc"
    }
  },
  "storageLayout": {
    "storage": [
      {
        "astId": 59,
        "contract": "crowdFund.sol:crowdFund",
        "label": "withrawalRequests",
        "offset": 0,
        "slot": "0",
        "type": "t_mapping(t_uint256,t_struct(Request)54_storage)"
      },
      {
        "astId": 62,
        "contract": "crowdFund.sol:crowdFund",
        "label": "withrawRequestCount",
        "offset": 0,
        "slot": "1",
        "type": "t_uint256"
      },
      {
        "astId": 64,
        "contract": "crowdFund.sol:crowdFund",
        "label": "entrepreneur",
        "offset": 0,
        "slot": "2",
        "type": "t_address"
      },
      {
        "astId": 74,
        "contract": "crowdFund.sol:crowdFund",
        "label": "contributors",
        "offset": 0,
        "slot": "3",
        "type": "t_mapping(t_address,t_struct(contributorInfo)69_storage)"
      },
      {
        "astId": 76,
        "contract": "crowdFund.sol:crowdFund",
        "label": "minimumContribution",
        "offset": 0,
        "slot": "4",
        "type": "t_uint256"
      },
      {
        "astId": 78,
        "contract": "crowdFund.sol:crowdFund",
        "label": "contributorsCount",
        "offset": 0,
        "slot": "5",
        "type": "t_uint256"
      }
    ],
    "types": {
      "t_address": {
        "encoding": "inplace",
        "label": "address",
        "numberOfBytes": "20"
      },
      "t_bool": {
        "encoding": "inplace",
        "label": "bool",
        "numberOfBytes": "1"
      },
      "t_mapping(t_address,t_bool)": {
        "encoding": "mapping",
        "key": "t_address",
        "label": "mapping(address => bool)",
        "numberOfBytes": "32",
        "value": "t_bool"
      },
      "t_mapping(t_address,t_struct(contributorInfo)69_storage)": {
        "encoding": "mapping",
        "key": "t_address",
        "label": "mapping(address => struct crowdFund.contributorInfo)",
        "numberOfBytes": "32",
        "value": "t_struct(contributorInfo)69_storage"
      },
      "t_mapping(t_uint256,t_struct(Request)54_storage)": {
        "encoding": "mapping",
        "key": "t_uint256",
        "label": "mapping(uint256 => struct crowdFund.Request)",
        "numberOfBytes": "32",
        "value": "t_struct(Request)54_storage"
      },
      "t_string_storage": {
        "encoding": "bytes",
        "label": "string",
        "numberOfBytes": "32"
      },
      "t_struct(Request)54_storage": {
        "encoding": "inplace",
        "label": "struct crowdFund.Request",
        "members": [
          {
            "astId": 41,
            "contract": "crowdFund.sol:crowdFund",
            "label": "requestDescription",
            "offset": 0,
            "slot": "0",
            "type": "t_string_storage"
          },
          {
            "astId": 43,
            "contract": "crowdFund.sol:crowdFund",
            "label": "recipient",
            "offset": 0,
            "slot": "1",
            "type": "t_address"
          },
          {
            "astId": 45,
            "contract": "crowdFund.sol:crowdFund",
            "label": "amount",
            "offset": 0,
            "slot": "2",
            "type": "t_uint256"
          },
          {
            "astId": 47,
            "contract": "crowdFund.sol:crowdFund",
            "label": "approvalCount",
            "offset": 0,
            "slot": "3",
            "type": "t_uint256"
          },
          {
            "astId": 49,
            "contract": "crowdFund.sol:crowdFund",
            "label": "completed",
            "offset": 0,
            "slot": "4",
            "type": "t_bool"
          },
          {
            "astId": 53,
            "contract": "crowdFund.sol:crowdFund",
            "label": "requestApprovers",
            "offset": 0,
            "slot": "5",
            "type": "t_mapping(t_address,t_bool)"
          }
        ],
        "numberOfBytes": "192"
      },
      "t_struct(contributorInfo)69_storage": {
        "encoding": "inplace",
        "label": "struct crowdFund.contributorInfo",
        "members": [
          {
            "astId": 66,
            "contract": "crowdFund.sol:crowdFund",
            "label": "contributed",
            "offset": 0,
            "slot": "0",
            "type": "t_bool"
          },
          {
            "astId": 68,
            "contract": "crowdFund.sol:crowdFund",
            "label": "approved",
            "offset": 1,
            "slot": "0",
            "type": "t_bool"
          }
        ],
        "numberOfBytes": "32"
      },
      "t_uint256": {
        "encoding": "inplace",
        "label": "uint256",
        "numberOfBytes": "32"
      }
    }
  },
  "userdoc": {
    "kind": "user",
    "methods": {},
    "version": 1
  }
}